{
  "contractName": "CDPFactory",
  "abi": [
    {
      "constant": true,
      "inputs": [],
      "name": "oracleAddress",
      "outputs": [
        {
          "name": "",
          "type": "address"
        }
      ],
      "payable": false,
      "stateMutability": "view",
      "type": "function"
    },
    {
      "constant": true,
      "inputs": [
        {
          "name": "",
          "type": "bytes32"
        }
      ],
      "name": "contracts",
      "outputs": [
        {
          "name": "",
          "type": "address"
        }
      ],
      "payable": false,
      "stateMutability": "view",
      "type": "function"
    },
    {
      "constant": true,
      "inputs": [
        {
          "name": "",
          "type": "bytes32"
        }
      ],
      "name": "cdps",
      "outputs": [
        {
          "name": "id",
          "type": "bytes32"
        },
        {
          "name": "assetId",
          "type": "bytes32"
        },
        {
          "name": "tokenAddress",
          "type": "address"
        },
        {
          "name": "owner",
          "type": "address"
        },
        {
          "name": "collateral",
          "type": "uint256"
        },
        {
          "name": "debt",
          "type": "uint256"
        },
        {
          "name": "jobId",
          "type": "uint256"
        }
      ],
      "payable": false,
      "stateMutability": "view",
      "type": "function"
    },
    {
      "anonymous": false,
      "inputs": [
        {
          "indexed": false,
          "name": "",
          "type": "uint256"
        }
      ],
      "name": "DebugUint256",
      "type": "event"
    },
    {
      "anonymous": false,
      "inputs": [
        {
          "indexed": false,
          "name": "",
          "type": "bytes32"
        }
      ],
      "name": "DebugBytes32",
      "type": "event"
    },
    {
      "constant": false,
      "inputs": [
        {
          "name": "_oracleAddress",
          "type": "address"
        }
      ],
      "name": "init",
      "outputs": [],
      "payable": false,
      "stateMutability": "nonpayable",
      "type": "function"
    },
    {
      "constant": false,
      "inputs": [
        {
          "name": "jobId",
          "type": "uint256"
        }
      ],
      "name": "mint",
      "outputs": [],
      "payable": true,
      "stateMutability": "payable",
      "type": "function"
    },
    {
      "constant": false,
      "inputs": [
        {
          "name": "jobId",
          "type": "uint256"
        }
      ],
      "name": "increaseCollateral",
      "outputs": [],
      "payable": true,
      "stateMutability": "payable",
      "type": "function"
    },
    {
      "constant": false,
      "inputs": [
        {
          "name": "jobId",
          "type": "uint256"
        }
      ],
      "name": "burn",
      "outputs": [],
      "payable": false,
      "stateMutability": "nonpayable",
      "type": "function"
    },
    {
      "constant": false,
      "inputs": [
        {
          "name": "cdpId",
          "type": "bytes32"
        }
      ],
      "name": "liquidate",
      "outputs": [],
      "payable": false,
      "stateMutability": "nonpayable",
      "type": "function"
    }
  ],
  "bytecode": "0x6080604052600060025534801561001557600080fd5b506138a0806100256000396000f3fe608060405260043610620000865760003560e01c8063a89ae4ba1162000055578063a89ae4ba146200018f578063b8a8383414620001e9578063ec56a373146200021a578063ee527e8a14620002995762000086565b80630a71096e146200008b57806319ab453c14620000ca57806342966c68146200011f578063a0712d68146200015e575b600080fd5b3480156200009857600080fd5b50620000c860048036036020811015620000b157600080fd5b81019080803590602001909291905050506200036e565b005b348015620000d757600080fd5b506200011d60048036036020811015620000f057600080fd5b81019080803573ffffffffffffffffffffffffffffffffffffffff16906020019092919050505062000624565b005b3480156200012c57600080fd5b506200015c600480360360208110156200014557600080fd5b8101908080359060200190929190505050620006cb565b005b6200018d600480360360208110156200017657600080fd5b810190808035906020019092919050505062000cd0565b005b3480156200019c57600080fd5b50620001a762001609565b604051808273ffffffffffffffffffffffffffffffffffffffff1673ffffffffffffffffffffffffffffffffffffffff16815260200191505060405180910390f35b62000218600480360360208110156200020157600080fd5b81019080803590602001909291905050506200162f565b005b3480156200022757600080fd5b5062000257600480360360208110156200024057600080fd5b810190808035906020019092919050505062001912565b604051808273ffffffffffffffffffffffffffffffffffffffff1673ffffffffffffffffffffffffffffffffffffffff16815260200191505060405180910390f35b348015620002a657600080fd5b50620002d660048036036020811015620002bf57600080fd5b810190808035906020019092919050505062001945565b604051808881526020018781526020018673ffffffffffffffffffffffffffffffffffffffff1673ffffffffffffffffffffffffffffffffffffffff1681526020018573ffffffffffffffffffffffffffffffffffffffff1673ffffffffffffffffffffffffffffffffffffffff16815260200184815260200183815260200182815260200197505050505050505060405180910390f35b60006001600083815260200190815260200160002090507f110cb96fe6c668b63c7e7dabd2d19d22d1965292a36646de1584ccf2d1d9341981600101546040518082815260200191505060405180910390a16000600460009054906101000a900473ffffffffffffffffffffffffffffffffffffffff1673ffffffffffffffffffffffffffffffffffffffff1663995e433983600601546040518263ffffffff1660e01b81526004018082815260200191505060206040518083038186803b1580156200043a57600080fd5b505afa1580156200044f573d6000803e3d6000fd5b505050506040513d60208110156200046657600080fd5b810190808051906020019092919050505090506000811415620004f1576040517f08c379a00000000000000000000000000000000000000000000000000000000081526004018080602001828103825260118152602001807f70726963652063616e6e6f74206265203000000000000000000000000000000081525060200191505060405180910390fd5b60008260050154905060008282816200050657fe5b0490507f43d4b4706539f9e22baf8767ebea21ad24f723f14b6981664ac4d0af596dddbe826040518082815260200191505060405180910390a17f43d4b4706539f9e22baf8767ebea21ad24f723f14b6981664ac4d0af596dddbe836040518082815260200191505060405180910390a17f43d4b4706539f9e22baf8767ebea21ad24f723f14b6981664ac4d0af596dddbe816040518082815260200191505060405180910390a1600184600401548281620005be57fe5b0410156200061d573373ffffffffffffffffffffffffffffffffffffffff166108fc85600401549081150290604051600060405180830381858888f1935050505015801562000611573d6000803e3d6000fd5b50600084600401819055505b5050505050565b80600360006101000a81548173ffffffffffffffffffffffffffffffffffffffff021916908373ffffffffffffffffffffffffffffffffffffffff160217905550600360009054906101000a900473ffffffffffffffffffffffffffffffffffffffff16600460006101000a81548173ffffffffffffffffffffffffffffffffffffffff021916908373ffffffffffffffffffffffffffffffffffffffff16021790555050565b60003390506060806000600460009054906101000a900473ffffffffffffffffffffffffffffffffffffffff1673ffffffffffffffffffffffffffffffffffffffff1663bf22c457866040518263ffffffff1660e01b81526004018082815260200191505060006040518083038186803b1580156200074957600080fd5b505afa1580156200075e573d6000803e3d6000fd5b505050506040513d6000823e3d601f19601f8201168201806040525060808110156200078957600080fd5b810190808051640100000000811115620007a257600080fd5b82810190506020810184811115620007b957600080fd5b8151856001820283011164010000000082111715620007d757600080fd5b50509291906020018051640100000000811115620007f457600080fd5b828101905060208101848111156200080b57600080fd5b81518560018202830111640100000000821117156200082957600080fd5b5050929190602001805190602001909291908051906020019092919050505093505092509250600083836040516020018083805190602001908083835b602083106200088b578051825260208201915060208101905060208303925062000866565b6001836020036101000a03801982511681845116808217855250505050505090500182805190602001908083835b60208310620008de5780518252602082019150602081019050602083039250620008b9565b6001836020036101000a0380198251168184511680821785525050505050509050019250505060405160208183030381529060405280519060200120905060003382604051602001808373ffffffffffffffffffffffffffffffffffffffff1673ffffffffffffffffffffffffffffffffffffffff1660601b81526014018281526020019250505060405160208183030381529060405280519060200120905060006001600083815260200190815260200160002090506000600460009054906101000a900473ffffffffffffffffffffffffffffffffffffffff1673ffffffffffffffffffffffffffffffffffffffff1663bf22c45760016040518263ffffffff1660e01b81526004018082815260200191505060006040518083038186803b15801562000a0c57600080fd5b505afa15801562000a21573d6000803e3d6000fd5b505050506040513d6000823e3d601f19601f82011682018060405250608081101562000a4c57600080fd5b81019080805164010000000081111562000a6557600080fd5b8281019050602081018481111562000a7c57600080fd5b815185600182028301116401000000008211171562000a9a57600080fd5b5050929190602001805164010000000081111562000ab757600080fd5b8281019050602081018481111562000ace57600080fd5b815185600182028301116401000000008211171562000aec57600080fd5b505092919060200180519060200190929190805190602001909291905050509350505050600081141562000b88576040517f08c379a00000000000000000000000000000000000000000000000000000000081526004018080602001828103825260188152602001807f4574682050726963652063616e6e6f74206265207a65726f000000000000000081525060200191505060405180910390fd5b600080600086815260200190815260200160002060009054906101000a900473ffffffffffffffffffffffffffffffffffffffff1690508073ffffffffffffffffffffffffffffffffffffffff166379cc67908a85600501546040518363ffffffff1660e01b8152600401808373ffffffffffffffffffffffffffffffffffffffff1673ffffffffffffffffffffffffffffffffffffffff16815260200182815260200192505050600060405180830381600087803b15801562000c4b57600080fd5b505af115801562000c60573d6000803e3d6000fd5b505050503373ffffffffffffffffffffffffffffffffffffffff166108fc84600401549081150290604051600060405180830381858888f1935050505015801562000caf573d6000803e3d6000fd5b50600083600401819055506000836005018190555050505050505050505050565b600034905060003390506060806000600460009054906101000a900473ffffffffffffffffffffffffffffffffffffffff1673ffffffffffffffffffffffffffffffffffffffff1663bf22c457876040518263ffffffff1660e01b81526004018082815260200191505060006040518083038186803b15801562000d5357600080fd5b505afa15801562000d68573d6000803e3d6000fd5b505050506040513d6000823e3d601f19601f82011682018060405250608081101562000d9357600080fd5b81019080805164010000000081111562000dac57600080fd5b8281019050602081018481111562000dc357600080fd5b815185600182028301116401000000008211171562000de157600080fd5b5050929190602001805164010000000081111562000dfe57600080fd5b8281019050602081018481111562000e1557600080fd5b815185600182028301116401000000008211171562000e3357600080fd5b5050929190602001805190602001909291908051906020019092919050505093505092509250600083836040516020018083805190602001908083835b6020831062000e95578051825260208201915060208101905060208303925062000e70565b6001836020036101000a03801982511681845116808217855250505050505090500182805190602001908083835b6020831062000ee8578051825260208201915060208101905060208303925062000ec3565b6001836020036101000a038019825116818451168082178552505050505050905001925050506040516020818303038152906040528051906020012090506000600460009054906101000a900473ffffffffffffffffffffffffffffffffffffffff1673ffffffffffffffffffffffffffffffffffffffff1663bf22c45760016040518263ffffffff1660e01b81526004018082815260200191505060006040518083038186803b15801562000f9d57600080fd5b505afa15801562000fb2573d6000803e3d6000fd5b505050506040513d6000823e3d601f19601f82011682018060405250608081101562000fdd57600080fd5b81019080805164010000000081111562000ff657600080fd5b828101905060208101848111156200100d57600080fd5b81518560018202830111640100000000821117156200102b57600080fd5b505092919060200180516401000000008111156200104857600080fd5b828101905060208101848111156200105f57600080fd5b81518560018202830111640100000000821117156200107d57600080fd5b505092919060200180519060200190929190805190602001909291905050509350505050600081141562001119576040517f08c379a00000000000000000000000000000000000000000000000000000000081526004018080602001828103825260188152602001807f4574682050726963652063616e6e6f74206265207a65726f000000000000000081525060200191505060405180910390fd5b600060018402828902816200112a57fe5b0490506000811415620011a5576040517f08c379a000000000000000000000000000000000000000000000000000000000815260040180806020018281038252600b8152602001807f746f4d696e74206973203000000000000000000000000000000000000000000081525060200191505060405180910390fd5b600073ffffffffffffffffffffffffffffffffffffffff1660008085815260200190815260200160002060009054906101000a900473ffffffffffffffffffffffffffffffffffffffff1673ffffffffffffffffffffffffffffffffffffffff161415620012965760006040516200121d90620019c7565b604051809103906000f0801580156200123a573d6000803e3d6000fd5b50905060008190508060008087815260200190815260200160002060006101000a81548173ffffffffffffffffffffffffffffffffffffffff021916908373ffffffffffffffffffffffffffffffffffffffff16021790555050505b600080600085815260200190815260200160002060009054906101000a900473ffffffffffffffffffffffffffffffffffffffff16905060003385604051602001808373ffffffffffffffffffffffffffffffffffffffff1673ffffffffffffffffffffffffffffffffffffffff1660601b8152601401828152602001925050506040516020818303038152906040528051906020012090506000801b600160008381526020019081526020016000206000015414156200148c576040518060e001604052808281526020018681526020018373ffffffffffffffffffffffffffffffffffffffff1681526020013373ffffffffffffffffffffffffffffffffffffffff1681526020013481526020018481526020018c81525060016000838152602001908152602001600020600082015181600001556020820151816001015560408201518160020160006101000a81548173ffffffffffffffffffffffffffffffffffffffff021916908373ffffffffffffffffffffffffffffffffffffffff16021790555060608201518160030160006101000a81548173ffffffffffffffffffffffffffffffffffffffff021916908373ffffffffffffffffffffffffffffffffffffffff1602179055506080820151816004015560a0820151816005015560c08201518160060155905050620014f3565b3460016000838152602001908152602001600020600401540160016000838152602001908152602001600020600401819055508260016000838152602001908152602001600020600501540160016000838152602001908152602001600020600501819055505b8173ffffffffffffffffffffffffffffffffffffffff166340c10f198a856040518363ffffffff1660e01b8152600401808373ffffffffffffffffffffffffffffffffffffffff1673ffffffffffffffffffffffffffffffffffffffff16815260200182815260200192505050602060405180830381600087803b1580156200157b57600080fd5b505af115801562001590573d6000803e3d6000fd5b505050506040513d6020811015620015a757600080fd5b8101908080519060200190929190505050506001600254016002819055507f110cb96fe6c668b63c7e7dabd2d19d22d1965292a36646de1584ccf2d1d93419816040518082815260200191505060405180910390a15050505050505050505050565b600360009054906101000a900473ffffffffffffffffffffffffffffffffffffffff1681565b60003390506060806000600460009054906101000a900473ffffffffffffffffffffffffffffffffffffffff1673ffffffffffffffffffffffffffffffffffffffff1663bf22c457866040518263ffffffff1660e01b81526004018082815260200191505060006040518083038186803b158015620016ad57600080fd5b505afa158015620016c2573d6000803e3d6000fd5b505050506040513d6000823e3d601f19601f820116820180604052506080811015620016ed57600080fd5b8101908080516401000000008111156200170657600080fd5b828101905060208101848111156200171d57600080fd5b81518560018202830111640100000000821117156200173b57600080fd5b505092919060200180516401000000008111156200175857600080fd5b828101905060208101848111156200176f57600080fd5b81518560018202830111640100000000821117156200178d57600080fd5b5050929190602001805190602001909291908051906020019092919050505093505092509250600083836040516020018083805190602001908083835b60208310620017ef5780518252602082019150602081019050602083039250620017ca565b6001836020036101000a03801982511681845116808217855250505050505090500182805190602001908083835b602083106200184257805182526020820191506020810190506020830392506200181d565b6001836020036101000a0380198251168184511680821785525050505050509050019250505060405160208183030381529060405280519060200120905060003382604051602001808373ffffffffffffffffffffffffffffffffffffffff1673ffffffffffffffffffffffffffffffffffffffff1660601b81526014018281526020019250505060405160208183030381529060405280519060200120905060006001600083815260200190815260200160002090503481600401540181600401819055505050505050505050565b60006020528060005260406000206000915054906101000a900473ffffffffffffffffffffffffffffffffffffffff1681565b60016020528060005260406000206000915090508060000154908060010154908060020160009054906101000a900473ffffffffffffffffffffffffffffffffffffffff16908060030160009054906101000a900473ffffffffffffffffffffffffffffffffffffffff16908060040154908060050154908060060154905087565b611e9680620019d68339019056fe60806040523480156200001157600080fd5b506040518060400160405280600881526020017f54657374436f696e0000000000000000000000000000000000000000000000008152506040518060400160405280600381526020017f545354000000000000000000000000000000000000000000000000000000000081525060128260039080519060200190620000989291906200030c565b508160049080519060200190620000b19291906200030c565b5080600560006101000a81548160ff021916908360ff160217905550505050620000e133620000e760201b60201c565b620003bb565b620001028160066200014860201b620017ba1790919060201c565b8073ffffffffffffffffffffffffffffffffffffffff167f6ae172837ea30b801fbfcdd4108aa1d5bf8ff775444fd70256b44e6bf3dfc3f660405160405180910390a250565b6200015a82826200022c60201b60201c565b15620001ce576040517f08c379a000000000000000000000000000000000000000000000000000000000815260040180806020018281038252601f8152602001807f526f6c65733a206163636f756e7420616c72656164792068617320726f6c650081525060200191505060405180910390fd5b60018260000160008373ffffffffffffffffffffffffffffffffffffffff1673ffffffffffffffffffffffffffffffffffffffff16815260200190815260200160002060006101000a81548160ff0219169083151502179055505050565b60008073ffffffffffffffffffffffffffffffffffffffff168273ffffffffffffffffffffffffffffffffffffffff161415620002b5576040517f08c379a000000000000000000000000000000000000000000000000000000000815260040180806020018281038252602281526020018062001e746022913960400191505060405180910390fd5b8260000160008373ffffffffffffffffffffffffffffffffffffffff1673ffffffffffffffffffffffffffffffffffffffff16815260200190815260200160002060009054906101000a900460ff16905092915050565b828054600181600116156101000203166002900490600052602060002090601f016020900481019282601f106200034f57805160ff191683800117855562000380565b8280016001018555821562000380579182015b828111156200037f57825182559160200191906001019062000362565b5b5090506200038f919062000393565b5090565b620003b891905b80821115620003b45760008160009055506001016200039a565b5090565b90565b611aa980620003cb6000396000f3fe608060405234801561001057600080fd5b50600436106101165760003560e01c806370a08231116100a257806398650275116100715780639865027514610557578063a457c2d714610561578063a9059cbb146105c7578063aa271e1a1461062d578063dd62ed3e1461068957610116565b806370a08231146103ea57806379cc67901461044257806395d89b4114610490578063983b2d561461051357610116565b80632e0f2625116100e95780632e0f2625146102a8578063313ce567146102cc57806339509351146102f057806340c10f191461035657806342966c68146103bc57610116565b806306fdde031461011b578063095ea7b31461019e57806318160ddd1461020457806323b872dd14610222575b600080fd5b610123610701565b6040518080602001828103825283818151815260200191508051906020019080838360005b83811015610163578082015181840152602081019050610148565b50505050905090810190601f1680156101905780820380516001836020036101000a031916815260200191505b509250505060405180910390f35b6101ea600480360360408110156101b457600080fd5b81019080803573ffffffffffffffffffffffffffffffffffffffff169060200190929190803590602001909291905050506107a3565b604051808215151515815260200191505060405180910390f35b61020c6107ba565b6040518082815260200191505060405180910390f35b61028e6004803603606081101561023857600080fd5b81019080803573ffffffffffffffffffffffffffffffffffffffff169060200190929190803573ffffffffffffffffffffffffffffffffffffffff169060200190929190803590602001909291905050506107c4565b604051808215151515815260200191505060405180910390f35b6102b0610875565b604051808260ff1660ff16815260200191505060405180910390f35b6102d461087a565b604051808260ff1660ff16815260200191505060405180910390f35b61033c6004803603604081101561030657600080fd5b81019080803573ffffffffffffffffffffffffffffffffffffffff16906020019092919080359060200190929190505050610891565b604051808215151515815260200191505060405180910390f35b6103a26004803603604081101561036c57600080fd5b81019080803573ffffffffffffffffffffffffffffffffffffffff16906020019092919080359060200190929190505050610936565b604051808215151515815260200191505060405180910390f35b6103e8600480360360208110156103d257600080fd5b81019080803590602001909291905050506109aa565b005b61042c6004803603602081101561040057600080fd5b81019080803573ffffffffffffffffffffffffffffffffffffffff1690602001909291905050506109b7565b6040518082815260200191505060405180910390f35b61048e6004803603604081101561045857600080fd5b81019080803573ffffffffffffffffffffffffffffffffffffffff169060200190929190803590602001909291905050506109ff565b005b610498610a0d565b6040518080602001828103825283818151815260200191508051906020019080838360005b838110156104d85780820151818401526020810190506104bd565b50505050905090810190601f1680156105055780820380516001836020036101000a031916815260200191505b509250505060405180910390f35b6105556004803603602081101561052957600080fd5b81019080803573ffffffffffffffffffffffffffffffffffffffff169060200190929190505050610aaf565b005b61055f610b19565b005b6105ad6004803603604081101561057757600080fd5b81019080803573ffffffffffffffffffffffffffffffffffffffff16906020019092919080359060200190929190505050610b24565b604051808215151515815260200191505060405180910390f35b610613600480360360408110156105dd57600080fd5b81019080803573ffffffffffffffffffffffffffffffffffffffff16906020019092919080359060200190929190505050610bc9565b604051808215151515815260200191505060405180910390f35b61066f6004803603602081101561064357600080fd5b81019080803573ffffffffffffffffffffffffffffffffffffffff169060200190929190505050610be0565b604051808215151515815260200191505060405180910390f35b6106eb6004803603604081101561069f57600080fd5b81019080803573ffffffffffffffffffffffffffffffffffffffff169060200190929190803573ffffffffffffffffffffffffffffffffffffffff169060200190929190505050610bfd565b6040518082815260200191505060405180910390f35b606060038054600181600116156101000203166002900480601f0160208091040260200160405190810160405280929190818152602001828054600181600116156101000203166002900480156107995780601f1061076e57610100808354040283529160200191610799565b820191906000526020600020905b81548152906001019060200180831161077c57829003601f168201915b5050505050905090565b60006107b0338484610c84565b6001905092915050565b6000600254905090565b60006107d1848484610e7b565b61086a843361086585600160008a73ffffffffffffffffffffffffffffffffffffffff1673ffffffffffffffffffffffffffffffffffffffff16815260200190815260200160002060003373ffffffffffffffffffffffffffffffffffffffff1673ffffffffffffffffffffffffffffffffffffffff1681526020019081526020016000205461111790919063ffffffff16565b610c84565b600190509392505050565b601281565b6000600560009054906101000a900460ff16905090565b600061092c338461092785600160003373ffffffffffffffffffffffffffffffffffffffff1673ffffffffffffffffffffffffffffffffffffffff16815260200190815260200160002060008973ffffffffffffffffffffffffffffffffffffffff1673ffffffffffffffffffffffffffffffffffffffff168152602001908152602001600020546111a090919063ffffffff16565b610c84565b6001905092915050565b600061094133610be0565b610996576040517f08c379a00000000000000000000000000000000000000000000000000000000081526004018080602001828103825260308152602001806119986030913960400191505060405180910390fd5b6109a08383611228565b6001905092915050565b6109b433826113e3565b50565b60008060008373ffffffffffffffffffffffffffffffffffffffff1673ffffffffffffffffffffffffffffffffffffffff168152602001908152602001600020549050919050565b610a098282611581565b5050565b606060048054600181600116156101000203166002900480601f016020809104026020016040519081016040528092919081815260200182805460018160011615610100020316600290048015610aa55780601f10610a7a57610100808354040283529160200191610aa5565b820191906000526020600020905b815481529060010190602001808311610a8857829003601f168201915b5050505050905090565b610ab833610be0565b610b0d576040517f08c379a00000000000000000000000000000000000000000000000000000000081526004018080602001828103825260308152602001806119986030913960400191505060405180910390fd5b610b1681611628565b50565b610b2233611682565b565b6000610bbf3384610bba85600160003373ffffffffffffffffffffffffffffffffffffffff1673ffffffffffffffffffffffffffffffffffffffff16815260200190815260200160002060008973ffffffffffffffffffffffffffffffffffffffff1673ffffffffffffffffffffffffffffffffffffffff1681526020019081526020016000205461111790919063ffffffff16565b610c84565b6001905092915050565b6000610bd6338484610e7b565b6001905092915050565b6000610bf68260066116dc90919063ffffffff16565b9050919050565b6000600160008473ffffffffffffffffffffffffffffffffffffffff1673ffffffffffffffffffffffffffffffffffffffff16815260200190815260200160002060008373ffffffffffffffffffffffffffffffffffffffff1673ffffffffffffffffffffffffffffffffffffffff16815260200190815260200160002054905092915050565b600073ffffffffffffffffffffffffffffffffffffffff168373ffffffffffffffffffffffffffffffffffffffff161415610d0a576040517f08c379a0000000000000000000000000000000000000000000000000000000008152600401808060200182810382526024815260200180611a516024913960400191505060405180910390fd5b600073ffffffffffffffffffffffffffffffffffffffff168273ffffffffffffffffffffffffffffffffffffffff161415610d90576040517f08c379a00000000000000000000000000000000000000000000000000000000081526004018080602001828103825260228152602001806119766022913960400191505060405180910390fd5b80600160008573ffffffffffffffffffffffffffffffffffffffff1673ffffffffffffffffffffffffffffffffffffffff16815260200190815260200160002060008473ffffffffffffffffffffffffffffffffffffffff1673ffffffffffffffffffffffffffffffffffffffff168152602001908152602001600020819055508173ffffffffffffffffffffffffffffffffffffffff168373ffffffffffffffffffffffffffffffffffffffff167f8c5be1e5ebec7d5bd14f71427d1e84f3dd0314c0f7b2291e5b200ac8c7c3b925836040518082815260200191505060405180910390a3505050565b600073ffffffffffffffffffffffffffffffffffffffff168373ffffffffffffffffffffffffffffffffffffffff161415610f01576040517f08c379a0000000000000000000000000000000000000000000000000000000008152600401808060200182810382526025815260200180611a2c6025913960400191505060405180910390fd5b600073ffffffffffffffffffffffffffffffffffffffff168273ffffffffffffffffffffffffffffffffffffffff161415610f87576040517f08c379a00000000000000000000000000000000000000000000000000000000081526004018080602001828103825260238152602001806119536023913960400191505060405180910390fd5b610fd8816000808673ffffffffffffffffffffffffffffffffffffffff1673ffffffffffffffffffffffffffffffffffffffff1681526020019081526020016000205461111790919063ffffffff16565b6000808573ffffffffffffffffffffffffffffffffffffffff1673ffffffffffffffffffffffffffffffffffffffff1681526020019081526020016000208190555061106b816000808573ffffffffffffffffffffffffffffffffffffffff1673ffffffffffffffffffffffffffffffffffffffff168152602001908152602001600020546111a090919063ffffffff16565b6000808473ffffffffffffffffffffffffffffffffffffffff1673ffffffffffffffffffffffffffffffffffffffff168152602001908152602001600020819055508173ffffffffffffffffffffffffffffffffffffffff168373ffffffffffffffffffffffffffffffffffffffff167fddf252ad1be2c89b69c2b068fc378daa952ba7f163c4a11628f55a4df523b3ef836040518082815260200191505060405180910390a3505050565b60008282111561118f576040517f08c379a000000000000000000000000000000000000000000000000000000000815260040180806020018281038252601e8152602001807f536166654d6174683a207375627472616374696f6e206f766572666c6f77000081525060200191505060405180910390fd5b600082840390508091505092915050565b60008082840190508381101561121e576040517f08c379a000000000000000000000000000000000000000000000000000000000815260040180806020018281038252601b8152602001807f536166654d6174683a206164646974696f6e206f766572666c6f77000000000081525060200191505060405180910390fd5b8091505092915050565b600073ffffffffffffffffffffffffffffffffffffffff168273ffffffffffffffffffffffffffffffffffffffff1614156112cb576040517f08c379a000000000000000000000000000000000000000000000000000000000815260040180806020018281038252601f8152602001807f45524332303a206d696e7420746f20746865207a65726f20616464726573730081525060200191505060405180910390fd5b6112e0816002546111a090919063ffffffff16565b600281905550611337816000808573ffffffffffffffffffffffffffffffffffffffff1673ffffffffffffffffffffffffffffffffffffffff168152602001908152602001600020546111a090919063ffffffff16565b6000808473ffffffffffffffffffffffffffffffffffffffff1673ffffffffffffffffffffffffffffffffffffffff168152602001908152602001600020819055508173ffffffffffffffffffffffffffffffffffffffff16600073ffffffffffffffffffffffffffffffffffffffff167fddf252ad1be2c89b69c2b068fc378daa952ba7f163c4a11628f55a4df523b3ef836040518082815260200191505060405180910390a35050565b600073ffffffffffffffffffffffffffffffffffffffff168273ffffffffffffffffffffffffffffffffffffffff161415611469576040517f08c379a0000000000000000000000000000000000000000000000000000000008152600401808060200182810382526021815260200180611a0b6021913960400191505060405180910390fd5b61147e8160025461111790919063ffffffff16565b6002819055506114d5816000808573ffffffffffffffffffffffffffffffffffffffff1673ffffffffffffffffffffffffffffffffffffffff1681526020019081526020016000205461111790919063ffffffff16565b6000808473ffffffffffffffffffffffffffffffffffffffff1673ffffffffffffffffffffffffffffffffffffffff16815260200190815260200160002081905550600073ffffffffffffffffffffffffffffffffffffffff168273ffffffffffffffffffffffffffffffffffffffff167fddf252ad1be2c89b69c2b068fc378daa952ba7f163c4a11628f55a4df523b3ef836040518082815260200191505060405180910390a35050565b61158b82826113e3565b611624823361161f84600160008873ffffffffffffffffffffffffffffffffffffffff1673ffffffffffffffffffffffffffffffffffffffff16815260200190815260200160002060003373ffffffffffffffffffffffffffffffffffffffff1673ffffffffffffffffffffffffffffffffffffffff1681526020019081526020016000205461111790919063ffffffff16565b610c84565b5050565b61163c8160066117ba90919063ffffffff16565b8073ffffffffffffffffffffffffffffffffffffffff167f6ae172837ea30b801fbfcdd4108aa1d5bf8ff775444fd70256b44e6bf3dfc3f660405160405180910390a250565b61169681600661189590919063ffffffff16565b8073ffffffffffffffffffffffffffffffffffffffff167fe94479a9f7e1952cc78f2d6baab678adc1b772d936c6583def489e524cb6669260405160405180910390a250565b60008073ffffffffffffffffffffffffffffffffffffffff168273ffffffffffffffffffffffffffffffffffffffff161415611763576040517f08c379a00000000000000000000000000000000000000000000000000000000081526004018080602001828103825260228152602001806119e96022913960400191505060405180910390fd5b8260000160008373ffffffffffffffffffffffffffffffffffffffff1673ffffffffffffffffffffffffffffffffffffffff16815260200190815260200160002060009054906101000a900460ff16905092915050565b6117c482826116dc565b15611837576040517f08c379a000000000000000000000000000000000000000000000000000000000815260040180806020018281038252601f8152602001807f526f6c65733a206163636f756e7420616c72656164792068617320726f6c650081525060200191505060405180910390fd5b60018260000160008373ffffffffffffffffffffffffffffffffffffffff1673ffffffffffffffffffffffffffffffffffffffff16815260200190815260200160002060006101000a81548160ff0219169083151502179055505050565b61189f82826116dc565b6118f4576040517f08c379a00000000000000000000000000000000000000000000000000000000081526004018080602001828103825260218152602001806119c86021913960400191505060405180910390fd5b60008260000160008373ffffffffffffffffffffffffffffffffffffffff1673ffffffffffffffffffffffffffffffffffffffff16815260200190815260200160002060006101000a81548160ff021916908315150217905550505056fe45524332303a207472616e7366657220746f20746865207a65726f206164647265737345524332303a20617070726f766520746f20746865207a65726f20616464726573734d696e746572526f6c653a2063616c6c657220646f6573206e6f74206861766520746865204d696e74657220726f6c65526f6c65733a206163636f756e7420646f6573206e6f74206861766520726f6c65526f6c65733a206163636f756e7420697320746865207a65726f206164647265737345524332303a206275726e2066726f6d20746865207a65726f206164647265737345524332303a207472616e736665722066726f6d20746865207a65726f206164647265737345524332303a20617070726f76652066726f6d20746865207a65726f2061646472657373a265627a7a72305820d68a7d1267b11e7ed1d11ec66f342ee59c2878e49b94dc924351758f0308812164736f6c634300050a0032526f6c65733a206163636f756e7420697320746865207a65726f2061646472657373a265627a7a7230582091e9c8b0c629e2228535d95f25fe4cc07ece94ff86c56858514acdd545a4bf2b64736f6c634300050a0032",
  "source": "pragma solidity 0.5.10;\n// function to liquidate (optional) this\nimport \"./SimpleToken.sol\";\nimport \"../../contracts/contracts/Delegator.sol\";\n\n\ncontract CDPFactory {\n    mapping (bytes32 => address) public contracts;\n    // cdpId = sha3(owner,assetid)\n    mapping (bytes32 => CDP) public cdps;\n    uint256 constant COLLATERAL_RATIO = 1;\n    uint256 numCDP = 0;\n\n    struct CDP {\n        bytes32 id;\n        bytes32 assetId;\n        address tokenAddress;\n        address owner;\n        uint256 collateral;\n        uint256 debt;\n        uint256 jobId;\n        // uint256 tokenPerEth;\n    }\n\n    address public oracleAddress;\n    Delegator delegator;\n    function init (address _oracleAddress) public {\n        oracleAddress = _oracleAddress;\n        delegator = Delegator(oracleAddress);\n    }\n    // function createRequest(string memory url, string memory selector) public {\n    // \tOracle oracle = Oracle(oracleAddress);\n    // \tbytes32 id = keccak256(abi.encode(url, selector));\n    // \toracle.request(id, url, selector);\n    // }\n\n    event DebugUint256(uint256);\n\n    event DebugBytes32(bytes32);\n\n    function mint(uint256 jobId) public payable\n    //only oracle\n    {\n\n        uint256 eth = msg.value;\n        address sender = msg.sender;\n        // (string memory url, string memory selector, bool repeat, uint256 result) = delegator.getJob(jobId);\n        (string memory url, string memory selector, , uint256 result) = delegator.getJob(jobId);\n        bytes32 id = keccak256(abi.encodePacked(url, selector));\n        (, , , uint256 ethPrice) = delegator.getJob(1);\n\n        // uint256 price = (result)/ethPrice;\n        require(ethPrice != 0,\"Eth Price cannot be zero\");\n        // if aapl = $1000\n        //if eth = $100\n        //then price = 10 eth / apple\n        // so 10 eth gives you 1 aapl\n        //if collateral ratio = 500%\n        // he should get 1 appl for 50 eth\n\n        // toMint = (2*220/174*5)\n        uint256 toMint = (eth*ethPrice)/(result*COLLATERAL_RATIO);\n        // uint256 tokenPerEth = (ethPrice)/(result*COLLATERAL_RATIO);\n        if (toMint == 0) revert(\"toMint is 0\");\n        // emit Debug(toMint);\n        if (contracts[id] == 0x0000000000000000000000000000000000000000) {\n            SimpleToken _st = new SimpleToken();\n            address ad = address(_st);\n            contracts[id] = ad;\n        }\n\n        SimpleToken st = SimpleToken(contracts[id]);\n        bytes32 cdpid = keccak256(abi.encodePacked(msg.sender, id));\n        if (cdps[cdpid].id == 0x0000000000000000000000000000000000000000000000000000000000000000) {\n            cdps[cdpid] = CDP(cdpid, id, address(st), msg.sender, msg.value, toMint, jobId);\n        } else {\n            cdps[cdpid].collateral = cdps[cdpid].collateral + msg.value;\n            cdps[cdpid].debt = cdps[cdpid].debt + toMint;\n        }\n        st.mint(sender, toMint);\n        numCDP = numCDP + 1;\n        emit DebugBytes32(cdpid);\n\n    }\n\n    function increaseCollateral(uint256 jobId) public payable {\n        address sender = msg.sender;\n        (string memory url, string memory selector, , uint256 result) = delegator.getJob(jobId);\n        bytes32 id = keccak256(abi.encodePacked(url, selector));\n        bytes32 cdpid = keccak256(abi.encodePacked(msg.sender, id));\n        CDP storage cdp = cdps[cdpid];\n        cdp.collateral = cdp.collateral + msg.value;\n    }\n\n    function burn(uint256 jobId) public\n    {\n\n        address sender = msg.sender;\n        (string memory url, string memory selector, , uint256 result) = delegator.getJob(jobId);\n        bytes32 id = keccak256(abi.encodePacked(url, selector));\n        bytes32 cdpid = keccak256(abi.encodePacked(msg.sender, id));\n        CDP storage cdp = cdps[cdpid];\n        // assert(cdpid!=)\n        //\n        (, , , uint256 ethPrice) = delegator.getJob(1);\n        //\n        // uint256 price = (result)/ethPrice;\n        require(ethPrice != 0,\"Eth Price cannot be zero\");\n        //\n        // uint256 toMint = (eth*ethPrice)/(result*COLLATERAL_RATIO);\n        // //eth = tokens*price*collateralRatio/ethPrice\n        // uint256 toReturn = amount/cdp.tokenPerEth;\n        // // require(toReturn <= cdp.collateral/COLLATERAL_RATIO);\n        // // emit Debug(toReturn);\n        // // emit Debug(toMint);\n        //\n        SimpleToken st = SimpleToken(contracts[id]);\n        st.burnFrom(sender, cdp.debt);\n        msg.sender.transfer(cdp.collateral);\n        cdp.collateral =  0; //cdp.collateral - toReturn;\n        cdp.debt = 0; //cdp.debt - amount;\n        // if oil price is 100 and eth is 300, mint 3 oil ethprice / oilprice * eth\n        // how much eth to returnj? token = ethprice/assetprice * eth\n        // eth = token/price\n    }\n\n    function liquidate(bytes32 cdpId) public {\n\n        // address sender = msg.sender;\n        CDP storage cdp = cdps[cdpId];\n        emit DebugBytes32(cdp.assetId);\n        uint256 price = delegator.getResult(cdp.jobId);\n        if (price == 0) {\n            revert(\"price cannot be 0\");\n        }\n        uint256 amount = cdp.debt;\n        uint256 toReturn = amount/price;\n        emit DebugUint256(amount);\n        emit DebugUint256(price);\n        emit DebugUint256(toReturn);\n        // address owner = cdp.owner;\n        // SimpleToken st = SimpleToken(contracts[cdp.assetId]);\n        if ((toReturn/cdp.collateral) < COLLATERAL_RATIO) {\n            msg.sender.transfer(cdp.collateral);\n            cdp.collateral = 0;\n    // st.burnFrom(owner, cdp.debt);\n        }\n    // emit Debug(toReturn);\n    // emit Debug(toMint);\n\n    // if oil price is 100 and eth is 300, mint 3 oil ethprice / oilprice * eth\n    // how much eth to returnj? token = ethprice/assetprice * eth\n    // eth = token/price\n\n\n    }\n\n}\n",
  "sourcePath": "/Users/hrishi/synthetic-assets/contracts/CDPFactory.sol",
  "compiler": {
    "name": "solc",
    "version": "0.5.10+commit.5a6ea5b1.Emscripten.clang"
  },
  "schemaVersion": "3.0.16",
  "updatedAt": "2019-10-07T11:22:19.089Z",
  "devdoc": {
    "methods": {}
  },
  "userdoc": {
    "methods": {}
  }
}