{
  "contractName": "CDPFactory",
  "abi": [
    {
      "constant": true,
      "inputs": [],
      "name": "oracleAddress",
      "outputs": [
        {
          "name": "",
          "type": "address"
        }
      ],
      "payable": false,
      "stateMutability": "view",
      "type": "function"
    },
    {
      "constant": true,
      "inputs": [
        {
          "name": "",
          "type": "bytes32"
        }
      ],
      "name": "contracts",
      "outputs": [
        {
          "name": "",
          "type": "address"
        }
      ],
      "payable": false,
      "stateMutability": "view",
      "type": "function"
    },
    {
      "constant": true,
      "inputs": [
        {
          "name": "",
          "type": "bytes32"
        }
      ],
      "name": "cdps",
      "outputs": [
        {
          "name": "id",
          "type": "bytes32"
        },
        {
          "name": "assetId",
          "type": "bytes32"
        },
        {
          "name": "tokenAddress",
          "type": "address"
        },
        {
          "name": "owner",
          "type": "address"
        },
        {
          "name": "collateral",
          "type": "uint256"
        },
        {
          "name": "debt",
          "type": "uint256"
        },
        {
          "name": "jobId",
          "type": "uint256"
        }
      ],
      "payable": false,
      "stateMutability": "view",
      "type": "function"
    },
    {
      "anonymous": false,
      "inputs": [
        {
          "indexed": false,
          "name": "",
          "type": "uint256"
        }
      ],
      "name": "DebugUint256",
      "type": "event"
    },
    {
      "anonymous": false,
      "inputs": [
        {
          "indexed": false,
          "name": "",
          "type": "bytes32"
        }
      ],
      "name": "DebugBytes32",
      "type": "event"
    },
    {
      "constant": false,
      "inputs": [
        {
          "name": "_oracleAddress",
          "type": "address"
        }
      ],
      "name": "init",
      "outputs": [],
      "payable": false,
      "stateMutability": "nonpayable",
      "type": "function"
    },
    {
      "constant": false,
      "inputs": [
        {
          "name": "jobId",
          "type": "uint256"
        }
      ],
      "name": "mint",
      "outputs": [],
      "payable": true,
      "stateMutability": "payable",
      "type": "function"
    },
    {
      "constant": false,
      "inputs": [
        {
          "name": "jobId",
          "type": "uint256"
        },
        {
          "name": "amount",
          "type": "uint256"
        }
      ],
      "name": "draw",
      "outputs": [],
      "payable": false,
      "stateMutability": "nonpayable",
      "type": "function"
    },
    {
      "constant": false,
      "inputs": [
        {
          "name": "jobId",
          "type": "uint256"
        }
      ],
      "name": "increaseCollateral",
      "outputs": [],
      "payable": true,
      "stateMutability": "payable",
      "type": "function"
    },
    {
      "constant": false,
      "inputs": [
        {
          "name": "jobId",
          "type": "uint256"
        }
      ],
      "name": "burn",
      "outputs": [],
      "payable": false,
      "stateMutability": "nonpayable",
      "type": "function"
    },
    {
      "constant": false,
      "inputs": [
        {
          "name": "cdpId",
          "type": "bytes32"
        }
      ],
      "name": "liquidate",
      "outputs": [],
      "payable": false,
      "stateMutability": "nonpayable",
      "type": "function"
    }
  ],
  "bytecode": "0x608060405260006002556000600460146101000a81548160ff02191690831515021790555034801561003057600080fd5b506145d8806100406000396000f3fe608060405260043610620000925760003560e01c8063a89ae4ba1162000061578063a89ae4ba146200019b578063b8a8383414620001f5578063d2b8035a1462000226578063ec56a373146200026f578063ee527e8a14620002ee5762000092565b80630a71096e146200009757806319ab453c14620000d657806342966c68146200012b578063a0712d68146200016a575b600080fd5b348015620000a457600080fd5b50620000d460048036036020811015620000bd57600080fd5b8101908080359060200190929190505050620003c3565b005b348015620000e357600080fd5b506200012960048036036020811015620000fc57600080fd5b81019080803573ffffffffffffffffffffffffffffffffffffffff1690602001909291905050506200081c565b005b3480156200013857600080fd5b5062000168600480360360208110156200015157600080fd5b8101908080359060200190929190505050620008f9565b005b62000199600480360360208110156200018257600080fd5b810190808035906020019092919050505062000d5d565b005b348015620001a857600080fd5b50620001b36200193f565b604051808273ffffffffffffffffffffffffffffffffffffffff1673ffffffffffffffffffffffffffffffffffffffff16815260200191505060405180910390f35b62000224600480360360208110156200020d57600080fd5b810190808035906020019092919050505062001965565b005b3480156200023357600080fd5b506200026d600480360360408110156200024c57600080fd5b81019080803590602001909291908035906020019092919050505062001d6b565b005b3480156200027c57600080fd5b50620002ac600480360360208110156200029557600080fd5b8101908080359060200190929190505050620025ea565b604051808273ffffffffffffffffffffffffffffffffffffffff1673ffffffffffffffffffffffffffffffffffffffff16815260200191505060405180910390f35b348015620002fb57600080fd5b506200032b600480360360208110156200031457600080fd5b81019080803590602001909291905050506200261d565b604051808881526020018781526020018673ffffffffffffffffffffffffffffffffffffffff1673ffffffffffffffffffffffffffffffffffffffff1681526020018573ffffffffffffffffffffffffffffffffffffffff1673ffffffffffffffffffffffffffffffffffffffff16815260200184815260200183815260200182815260200197505050505050505060405180910390f35b60006001600083815260200190815260200160002090507f110cb96fe6c668b63c7e7dabd2d19d22d1965292a36646de1584ccf2d1d9341981600101546040518082815260200191505060405180910390a16000600460009054906101000a900473ffffffffffffffffffffffffffffffffffffffff1673ffffffffffffffffffffffffffffffffffffffff1663995e433983600601546040518263ffffffff1660e01b81526004018082815260200191505060206040518083038186803b1580156200048f57600080fd5b505afa158015620004a4573d6000803e3d6000fd5b505050506040513d6020811015620004bb57600080fd5b810190808051906020019092919050505090506000600460009054906101000a900473ffffffffffffffffffffffffffffffffffffffff1673ffffffffffffffffffffffffffffffffffffffff1663bf22c45760016040518263ffffffff1660e01b81526004018082815260200191505060006040518083038186803b1580156200054557600080fd5b505afa1580156200055a573d6000803e3d6000fd5b505050506040513d6000823e3d601f19601f8201168201806040525060a08110156200058557600080fd5b8101908080516401000000008111156200059e57600080fd5b82810190506020810184811115620005b557600080fd5b8151856001820283011164010000000082111715620005d357600080fd5b50509291906020018051640100000000811115620005f057600080fd5b828101905060208101848111156200060757600080fd5b81518560018202830111640100000000821117156200062557600080fd5b505092919060200180516401000000008111156200064257600080fd5b828101905060208101848111156200065957600080fd5b81518560018202830111640100000000821117156200067757600080fd5b50509291906020018051906020019092919080519060200190929190505050945050505050600081141562000714576040517f08c379a00000000000000000000000000000000000000000000000000000000081526004018080602001828103825260188152602001807f4574682050726963652063616e6e6f74206265207a65726f000000000000000081525060200191505060405180910390fd5b60008214156200078c576040517f08c379a000000000000000000000000000000000000000000000000000000000815260040180806020018281038252601a8152602001807f41737365742070726963652063616e6e6f74206265207a65726f00000000000081525060200191505060405180910390fd5b6000836005015483026064838660040154020281620007a757fe5b04905060c881101562000815573373ffffffffffffffffffffffffffffffffffffffff166108fc85600401549081150290604051600060405180830381858888f19350505050158015620007ff573d6000803e3d6000fd5b5060008460040181905550600084600501819055505b5050505050565b600460149054906101000a900460ff16156200083757600080fd5b6001600460146101000a81548160ff02191690831515021790555080600360006101000a81548173ffffffffffffffffffffffffffffffffffffffff021916908373ffffffffffffffffffffffffffffffffffffffff160217905550600360009054906101000a900473ffffffffffffffffffffffffffffffffffffffff16600460006101000a81548173ffffffffffffffffffffffffffffffffffffffff021916908373ffffffffffffffffffffffffffffffffffffffff16021790555050565b60003390506060806000600460009054906101000a900473ffffffffffffffffffffffffffffffffffffffff1673ffffffffffffffffffffffffffffffffffffffff1663bf22c457866040518263ffffffff1660e01b81526004018082815260200191505060006040518083038186803b1580156200097757600080fd5b505afa1580156200098c573d6000803e3d6000fd5b505050506040513d6000823e3d601f19601f8201168201806040525060a0811015620009b757600080fd5b810190808051640100000000811115620009d057600080fd5b82810190506020810184811115620009e757600080fd5b815185600182028301116401000000008211171562000a0557600080fd5b5050929190602001805164010000000081111562000a2257600080fd5b8281019050602081018481111562000a3957600080fd5b815185600182028301116401000000008211171562000a5757600080fd5b5050929190602001805164010000000081111562000a7457600080fd5b8281019050602081018481111562000a8b57600080fd5b815185600182028301116401000000008211171562000aa957600080fd5b505092919060200180519060200190929190805190602001909291905050509450505092509250600083836040516020018083805190602001908083835b6020831062000b0c578051825260208201915060208101905060208303925062000ae7565b6001836020036101000a03801982511681845116808217855250505050505090500182805190602001908083835b6020831062000b5f578051825260208201915060208101905060208303925062000b3a565b6001836020036101000a0380198251168184511680821785525050505050509050019250505060405160208183030381529060405280519060200120905060003382604051602001808373ffffffffffffffffffffffffffffffffffffffff1673ffffffffffffffffffffffffffffffffffffffff1660601b8152601401828152602001925050506040516020818303038152906040528051906020012090506000600160008381526020019081526020016000209050600080600085815260200190815260200160002060009054906101000a900473ffffffffffffffffffffffffffffffffffffffff1690508073ffffffffffffffffffffffffffffffffffffffff166379cc67908984600501546040518363ffffffff1660e01b8152600401808373ffffffffffffffffffffffffffffffffffffffff1673ffffffffffffffffffffffffffffffffffffffff16815260200182815260200192505050600060405180830381600087803b15801562000cd957600080fd5b505af115801562000cee573d6000803e3d6000fd5b505050503373ffffffffffffffffffffffffffffffffffffffff166108fc83600401549081150290604051600060405180830381858888f1935050505015801562000d3d573d6000803e3d6000fd5b506000826004018190555060008260050181905550505050505050505050565b6000349050600033905060608060606000600460009054906101000a900473ffffffffffffffffffffffffffffffffffffffff1673ffffffffffffffffffffffffffffffffffffffff1663bf22c457886040518263ffffffff1660e01b81526004018082815260200191505060006040518083038186803b15801562000de257600080fd5b505afa15801562000df7573d6000803e3d6000fd5b505050506040513d6000823e3d601f19601f8201168201806040525060a081101562000e2257600080fd5b81019080805164010000000081111562000e3b57600080fd5b8281019050602081018481111562000e5257600080fd5b815185600182028301116401000000008211171562000e7057600080fd5b5050929190602001805164010000000081111562000e8d57600080fd5b8281019050602081018481111562000ea457600080fd5b815185600182028301116401000000008211171562000ec257600080fd5b5050929190602001805164010000000081111562000edf57600080fd5b8281019050602081018481111562000ef657600080fd5b815185600182028301116401000000008211171562000f1457600080fd5b50509291906020018051906020019092919080519060200190929190505050945050935093509350600084846040516020018083805190602001908083835b6020831062000f78578051825260208201915060208101905060208303925062000f53565b6001836020036101000a03801982511681845116808217855250505050505090500182805190602001908083835b6020831062000fcb578051825260208201915060208101905060208303925062000fa6565b6001836020036101000a038019825116818451168082178552505050505050905001925050506040516020818303038152906040528051906020012090506000600460009054906101000a900473ffffffffffffffffffffffffffffffffffffffff1673ffffffffffffffffffffffffffffffffffffffff1663bf22c45760016040518263ffffffff1660e01b81526004018082815260200191505060006040518083038186803b1580156200108057600080fd5b505afa15801562001095573d6000803e3d6000fd5b505050506040513d6000823e3d601f19601f8201168201806040525060a0811015620010c057600080fd5b810190808051640100000000811115620010d957600080fd5b82810190506020810184811115620010f057600080fd5b81518560018202830111640100000000821117156200110e57600080fd5b505092919060200180516401000000008111156200112b57600080fd5b828101905060208101848111156200114257600080fd5b81518560018202830111640100000000821117156200116057600080fd5b505092919060200180516401000000008111156200117d57600080fd5b828101905060208101848111156200119457600080fd5b8151856001820283011164010000000082111715620011b257600080fd5b5050929190602001805190602001909291908051906020019092919050505094505050505060008114156200124f576040517f08c379a00000000000000000000000000000000000000000000000000000000081526004018080602001828103825260188152602001807f4574682050726963652063616e6e6f74206265207a65726f000000000000000081525060200191505060405180910390fd5b6000831415620012c7576040517f08c379a000000000000000000000000000000000000000000000000000000000815260040180806020018281038252601a8152602001807f41737365742070726963652063616e6e6f74206265207a65726f00000000000081525060200191505060405180910390fd5b60006101f484026064838b020281620012dc57fe5b049050600081141562001357576040517f08c379a000000000000000000000000000000000000000000000000000000000815260040180806020018281038252600b8152602001807f746f4d696e74206973203000000000000000000000000000000000000000000081525060200191505060405180910390fd5b600073ffffffffffffffffffffffffffffffffffffffff1660008085815260200190815260200160002060009054906101000a900473ffffffffffffffffffffffffffffffffffffffff1673ffffffffffffffffffffffffffffffffffffffff161415620015cb5760008560405160200180807f52617a6f722053796e746865746963200000000000000000000000000000000081525060100182805190602001908083835b60208310620014225780518252602082019150602081019050602083039250620013fd565b6001836020036101000a03801982511681845116808217855250505050505090500191505060405160208183030381529060405286601260405162001467906200269f565b8080602001806020018460ff168152602001838103835286818151815260200191508051906020019080838360005b83811015620014b357808201518184015260208101905062001496565b50505050905090810190601f168015620014e15780820380516001836020036101000a031916815260200191505b50838103825285818151815260200191508051906020019080838360005b838110156200151c578082015181840152602081019050620014ff565b50505050905090810190601f1680156200154a5780820380516001836020036101000a031916815260200191505b5095505050505050604051809103906000f0801580156200156f573d6000803e3d6000fd5b50905060008190508060008087815260200190815260200160002060006101000a81548173ffffffffffffffffffffffffffffffffffffffff021916908373ffffffffffffffffffffffffffffffffffffffff16021790555050505b600080600085815260200190815260200160002060009054906101000a900473ffffffffffffffffffffffffffffffffffffffff16905060003385604051602001808373ffffffffffffffffffffffffffffffffffffffff1673ffffffffffffffffffffffffffffffffffffffff1660601b8152601401828152602001925050506040516020818303038152906040528051906020012090506000801b60016000838152602001908152602001600020600001541415620017c1576040518060e001604052808281526020018681526020018373ffffffffffffffffffffffffffffffffffffffff1681526020013373ffffffffffffffffffffffffffffffffffffffff1681526020013481526020018481526020018d81525060016000838152602001908152602001600020600082015181600001556020820151816001015560408201518160020160006101000a81548173ffffffffffffffffffffffffffffffffffffffff021916908373ffffffffffffffffffffffffffffffffffffffff16021790555060608201518160030160006101000a81548173ffffffffffffffffffffffffffffffffffffffff021916908373ffffffffffffffffffffffffffffffffffffffff1602179055506080820151816004015560a0820151816005015560c0820151816006015590505062001828565b3460016000838152602001908152602001600020600401540160016000838152602001908152602001600020600401819055508260016000838152602001908152602001600020600501540160016000838152602001908152602001600020600501819055505b8173ffffffffffffffffffffffffffffffffffffffff166340c10f198b856040518363ffffffff1660e01b8152600401808373ffffffffffffffffffffffffffffffffffffffff1673ffffffffffffffffffffffffffffffffffffffff16815260200182815260200192505050602060405180830381600087803b158015620018b057600080fd5b505af1158015620018c5573d6000803e3d6000fd5b505050506040513d6020811015620018dc57600080fd5b8101908080519060200190929190505050506001600254016002819055507f110cb96fe6c668b63c7e7dabd2d19d22d1965292a36646de1584ccf2d1d93419816040518082815260200191505060405180910390a1505050505050505050505050565b600360009054906101000a900473ffffffffffffffffffffffffffffffffffffffff1681565b6060806000600460009054906101000a900473ffffffffffffffffffffffffffffffffffffffff1673ffffffffffffffffffffffffffffffffffffffff1663bf22c457856040518263ffffffff1660e01b81526004018082815260200191505060006040518083038186803b158015620019de57600080fd5b505afa158015620019f3573d6000803e3d6000fd5b505050506040513d6000823e3d601f19601f8201168201806040525060a081101562001a1e57600080fd5b81019080805164010000000081111562001a3757600080fd5b8281019050602081018481111562001a4e57600080fd5b815185600182028301116401000000008211171562001a6c57600080fd5b5050929190602001805164010000000081111562001a8957600080fd5b8281019050602081018481111562001aa057600080fd5b815185600182028301116401000000008211171562001abe57600080fd5b5050929190602001805164010000000081111562001adb57600080fd5b8281019050602081018481111562001af257600080fd5b815185600182028301116401000000008211171562001b1057600080fd5b5050929190602001805190602001909291908051906020019092919050505094505050925092506000811162001bae576040517f08c379a00000000000000000000000000000000000000000000000000000000081526004018080602001828103825260158152602001807f526573756c742063616e6e6f74206265207a65726f000000000000000000000081525060200191505060405180910390fd5b600083836040516020018083805190602001908083835b6020831062001bea578051825260208201915060208101905060208303925062001bc5565b6001836020036101000a03801982511681845116808217855250505050505090500182805190602001908083835b6020831062001c3d578051825260208201915060208101905060208303925062001c18565b6001836020036101000a0380198251168184511680821785525050505050509050019250505060405160208183030381529060405280519060200120905060003382604051602001808373ffffffffffffffffffffffffffffffffffffffff1673ffffffffffffffffffffffffffffffffffffffff1660601b8152601401828152602001925050506040516020818303038152906040528051906020012090506000600160008381526020019081526020016000209050600081600401541162001d53576040517f08c379a0000000000000000000000000000000000000000000000000000000008152600401808060200182810382526022815260200180620045826022913960400191505060405180910390fd5b34816004015401816004018190555050505050505050565b600081141562001de3576040517f08c379a000000000000000000000000000000000000000000000000000000000815260040180806020018281038252600b8152602001807f616d6f756e74206973203000000000000000000000000000000000000000000081525060200191505060405180910390fd5b60003390506060806000600460009054906101000a900473ffffffffffffffffffffffffffffffffffffffff1673ffffffffffffffffffffffffffffffffffffffff1663bf22c457876040518263ffffffff1660e01b81526004018082815260200191505060006040518083038186803b15801562001e6157600080fd5b505afa15801562001e76573d6000803e3d6000fd5b505050506040513d6000823e3d601f19601f8201168201806040525060a081101562001ea157600080fd5b81019080805164010000000081111562001eba57600080fd5b8281019050602081018481111562001ed157600080fd5b815185600182028301116401000000008211171562001eef57600080fd5b5050929190602001805164010000000081111562001f0c57600080fd5b8281019050602081018481111562001f2357600080fd5b815185600182028301116401000000008211171562001f4157600080fd5b5050929190602001805164010000000081111562001f5e57600080fd5b8281019050602081018481111562001f7557600080fd5b815185600182028301116401000000008211171562001f9357600080fd5b505092919060200180519060200190929190805190602001909291905050509450505092509250600083836040516020018083805190602001908083835b6020831062001ff6578051825260208201915060208101905060208303925062001fd1565b6001836020036101000a03801982511681845116808217855250505050505090500182805190602001908083835b6020831062002049578051825260208201915060208101905060208303925062002024565b6001836020036101000a0380198251168184511680821785525050505050509050019250505060405160208183030381529060405280519060200120905060003382604051602001808373ffffffffffffffffffffffffffffffffffffffff1673ffffffffffffffffffffffffffffffffffffffff1660601b81526014018281526020019250505060405160208183030381529060405280519060200120905060006001600083815260200190815260200160002090506000816004015414156200217c576040517f08c379a00000000000000000000000000000000000000000000000000000000081526004018080602001828103825260148152602001807f43445020686173203020636f6c6c61746572616c00000000000000000000000081525060200191505060405180910390fd5b6000600460009054906101000a900473ffffffffffffffffffffffffffffffffffffffff1673ffffffffffffffffffffffffffffffffffffffff1663bf22c45760016040518263ffffffff1660e01b81526004018082815260200191505060006040518083038186803b158015620021f357600080fd5b505afa15801562002208573d6000803e3d6000fd5b505050506040513d6000823e3d601f19601f8201168201806040525060a08110156200223357600080fd5b8101908080516401000000008111156200224c57600080fd5b828101905060208101848111156200226357600080fd5b81518560018202830111640100000000821117156200228157600080fd5b505092919060200180516401000000008111156200229e57600080fd5b82810190506020810184811115620022b557600080fd5b8151856001820283011164010000000082111715620022d357600080fd5b50509291906020018051640100000000811115620022f057600080fd5b828101905060208101848111156200230757600080fd5b81518560018202830111640100000000821117156200232557600080fd5b505092919060200180519060200190929190805190602001909291905050509450505050506000811415620023c2576040517f08c379a00000000000000000000000000000000000000000000000000000000081526004018080602001828103825260188152602001807f4574682050726963652063616e6e6f74206265207a65726f000000000000000081525060200191505060405180910390fd5b60008514156200243a576040517f08c379a000000000000000000000000000000000000000000000000000000000815260040180806020018281038252601a8152602001807f41737365742070726963652063616e6e6f74206265207a65726f00000000000081525060200191505060405180910390fd5b88826005015401826005018190555060008260050154860260648385600401540202816200246457fe5b04905060c8811015620024df576040517f08c379a000000000000000000000000000000000000000000000000000000000815260040180806020018281038252601e8152602001807f436f6c6c61746572616c20726174696f2062656c6f77206d696e696d756d000081525060200191505060405180910390fd5b600080600087815260200190815260200160002060009054906101000a900473ffffffffffffffffffffffffffffffffffffffff1690508073ffffffffffffffffffffffffffffffffffffffff166340c10f198b8d6040518363ffffffff1660e01b8152600401808373ffffffffffffffffffffffffffffffffffffffff1673ffffffffffffffffffffffffffffffffffffffff16815260200182815260200192505050602060405180830381600087803b1580156200259e57600080fd5b505af1158015620025b3573d6000803e3d6000fd5b505050506040513d6020811015620025ca57600080fd5b810190808051906020019092919050505050505050505050505050505050565b60006020528060005260406000206000915054906101000a900473ffffffffffffffffffffffffffffffffffffffff1681565b60016020528060005260406000206000915090508060000154908060010154908060020160009054906101000a900473ffffffffffffffffffffffffffffffffffffffff16908060030160009054906101000a900473ffffffffffffffffffffffffffffffffffffffff16908060040154908060050154908060060154905087565b611ed480620026ae8339019056fe60806040523480156200001157600080fd5b5060405162001ed438038062001ed4833981810160405260608110156200003757600080fd5b8101908080516401000000008111156200005057600080fd5b828101905060208101848111156200006757600080fd5b81518560018202830111640100000000821117156200008557600080fd5b50509291906020018051640100000000811115620000a257600080fd5b82810190506020810184811115620000b957600080fd5b8151856001820283011164010000000082111715620000d757600080fd5b5050929190602001805190602001909291905050508282828260039080519060200190620001079291906200037e565b508160049080519060200190620001209291906200037e565b5080600560006101000a81548160ff021916908360ff16021790555050505062000150336200015960201b60201c565b5050506200042d565b62000174816006620001ba60201b620017861790919060201c565b8073ffffffffffffffffffffffffffffffffffffffff167f6ae172837ea30b801fbfcdd4108aa1d5bf8ff775444fd70256b44e6bf3dfc3f660405160405180910390a250565b620001cc82826200029e60201b60201c565b1562000240576040517f08c379a000000000000000000000000000000000000000000000000000000000815260040180806020018281038252601f8152602001807f526f6c65733a206163636f756e7420616c72656164792068617320726f6c650081525060200191505060405180910390fd5b60018260000160008373ffffffffffffffffffffffffffffffffffffffff1673ffffffffffffffffffffffffffffffffffffffff16815260200190815260200160002060006101000a81548160ff0219169083151502179055505050565b60008073ffffffffffffffffffffffffffffffffffffffff168273ffffffffffffffffffffffffffffffffffffffff16141562000327576040517f08c379a000000000000000000000000000000000000000000000000000000000815260040180806020018281038252602281526020018062001eb26022913960400191505060405180910390fd5b8260000160008373ffffffffffffffffffffffffffffffffffffffff1673ffffffffffffffffffffffffffffffffffffffff16815260200190815260200160002060009054906101000a900460ff16905092915050565b828054600181600116156101000203166002900490600052602060002090601f016020900481019282601f10620003c157805160ff1916838001178555620003f2565b82800160010185558215620003f2579182015b82811115620003f1578251825591602001919060010190620003d4565b5b50905062000401919062000405565b5090565b6200042a91905b80821115620004265760008160009055506001016200040c565b5090565b90565b611a75806200043d6000396000f3fe608060405234801561001057600080fd5b506004361061010b5760003560e01c806370a08231116100a257806398650275116100715780639865027514610528578063a457c2d714610532578063a9059cbb14610598578063aa271e1a146105fe578063dd62ed3e1461065a5761010b565b806370a08231146103bb57806379cc67901461041357806395d89b4114610461578063983b2d56146104e45761010b565b8063313ce567116100de578063313ce5671461029d57806339509351146102c157806340c10f191461032757806342966c681461038d5761010b565b806306fdde0314610110578063095ea7b31461019357806318160ddd146101f957806323b872dd14610217575b600080fd5b6101186106d2565b6040518080602001828103825283818151815260200191508051906020019080838360005b8381101561015857808201518184015260208101905061013d565b50505050905090810190601f1680156101855780820380516001836020036101000a031916815260200191505b509250505060405180910390f35b6101df600480360360408110156101a957600080fd5b81019080803573ffffffffffffffffffffffffffffffffffffffff16906020019092919080359060200190929190505050610774565b604051808215151515815260200191505060405180910390f35b61020161078b565b6040518082815260200191505060405180910390f35b6102836004803603606081101561022d57600080fd5b81019080803573ffffffffffffffffffffffffffffffffffffffff169060200190929190803573ffffffffffffffffffffffffffffffffffffffff16906020019092919080359060200190929190505050610795565b604051808215151515815260200191505060405180910390f35b6102a5610846565b604051808260ff1660ff16815260200191505060405180910390f35b61030d600480360360408110156102d757600080fd5b81019080803573ffffffffffffffffffffffffffffffffffffffff1690602001909291908035906020019092919050505061085d565b604051808215151515815260200191505060405180910390f35b6103736004803603604081101561033d57600080fd5b81019080803573ffffffffffffffffffffffffffffffffffffffff16906020019092919080359060200190929190505050610902565b604051808215151515815260200191505060405180910390f35b6103b9600480360360208110156103a357600080fd5b8101908080359060200190929190505050610976565b005b6103fd600480360360208110156103d157600080fd5b81019080803573ffffffffffffffffffffffffffffffffffffffff169060200190929190505050610983565b6040518082815260200191505060405180910390f35b61045f6004803603604081101561042957600080fd5b81019080803573ffffffffffffffffffffffffffffffffffffffff169060200190929190803590602001909291905050506109cb565b005b6104696109d9565b6040518080602001828103825283818151815260200191508051906020019080838360005b838110156104a957808201518184015260208101905061048e565b50505050905090810190601f1680156104d65780820380516001836020036101000a031916815260200191505b509250505060405180910390f35b610526600480360360208110156104fa57600080fd5b81019080803573ffffffffffffffffffffffffffffffffffffffff169060200190929190505050610a7b565b005b610530610ae5565b005b61057e6004803603604081101561054857600080fd5b81019080803573ffffffffffffffffffffffffffffffffffffffff16906020019092919080359060200190929190505050610af0565b604051808215151515815260200191505060405180910390f35b6105e4600480360360408110156105ae57600080fd5b81019080803573ffffffffffffffffffffffffffffffffffffffff16906020019092919080359060200190929190505050610b95565b604051808215151515815260200191505060405180910390f35b6106406004803603602081101561061457600080fd5b81019080803573ffffffffffffffffffffffffffffffffffffffff169060200190929190505050610bac565b604051808215151515815260200191505060405180910390f35b6106bc6004803603604081101561067057600080fd5b81019080803573ffffffffffffffffffffffffffffffffffffffff169060200190929190803573ffffffffffffffffffffffffffffffffffffffff169060200190929190505050610bc9565b6040518082815260200191505060405180910390f35b606060038054600181600116156101000203166002900480601f01602080910402602001604051908101604052809291908181526020018280546001816001161561010002031660029004801561076a5780601f1061073f5761010080835404028352916020019161076a565b820191906000526020600020905b81548152906001019060200180831161074d57829003601f168201915b5050505050905090565b6000610781338484610c50565b6001905092915050565b6000600254905090565b60006107a2848484610e47565b61083b843361083685600160008a73ffffffffffffffffffffffffffffffffffffffff1673ffffffffffffffffffffffffffffffffffffffff16815260200190815260200160002060003373ffffffffffffffffffffffffffffffffffffffff1673ffffffffffffffffffffffffffffffffffffffff168152602001908152602001600020546110e390919063ffffffff16565b610c50565b600190509392505050565b6000600560009054906101000a900460ff16905090565b60006108f833846108f385600160003373ffffffffffffffffffffffffffffffffffffffff1673ffffffffffffffffffffffffffffffffffffffff16815260200190815260200160002060008973ffffffffffffffffffffffffffffffffffffffff1673ffffffffffffffffffffffffffffffffffffffff1681526020019081526020016000205461116c90919063ffffffff16565b610c50565b6001905092915050565b600061090d33610bac565b610962576040517f08c379a00000000000000000000000000000000000000000000000000000000081526004018080602001828103825260308152602001806119646030913960400191505060405180910390fd5b61096c83836111f4565b6001905092915050565b61098033826113af565b50565b60008060008373ffffffffffffffffffffffffffffffffffffffff1673ffffffffffffffffffffffffffffffffffffffff168152602001908152602001600020549050919050565b6109d5828261154d565b5050565b606060048054600181600116156101000203166002900480601f016020809104026020016040519081016040528092919081815260200182805460018160011615610100020316600290048015610a715780601f10610a4657610100808354040283529160200191610a71565b820191906000526020600020905b815481529060010190602001808311610a5457829003601f168201915b5050505050905090565b610a8433610bac565b610ad9576040517f08c379a00000000000000000000000000000000000000000000000000000000081526004018080602001828103825260308152602001806119646030913960400191505060405180910390fd5b610ae2816115f4565b50565b610aee3361164e565b565b6000610b8b3384610b8685600160003373ffffffffffffffffffffffffffffffffffffffff1673ffffffffffffffffffffffffffffffffffffffff16815260200190815260200160002060008973ffffffffffffffffffffffffffffffffffffffff1673ffffffffffffffffffffffffffffffffffffffff168152602001908152602001600020546110e390919063ffffffff16565b610c50565b6001905092915050565b6000610ba2338484610e47565b6001905092915050565b6000610bc28260066116a890919063ffffffff16565b9050919050565b6000600160008473ffffffffffffffffffffffffffffffffffffffff1673ffffffffffffffffffffffffffffffffffffffff16815260200190815260200160002060008373ffffffffffffffffffffffffffffffffffffffff1673ffffffffffffffffffffffffffffffffffffffff16815260200190815260200160002054905092915050565b600073ffffffffffffffffffffffffffffffffffffffff168373ffffffffffffffffffffffffffffffffffffffff161415610cd6576040517f08c379a0000000000000000000000000000000000000000000000000000000008152600401808060200182810382526024815260200180611a1d6024913960400191505060405180910390fd5b600073ffffffffffffffffffffffffffffffffffffffff168273ffffffffffffffffffffffffffffffffffffffff161415610d5c576040517f08c379a00000000000000000000000000000000000000000000000000000000081526004018080602001828103825260228152602001806119426022913960400191505060405180910390fd5b80600160008573ffffffffffffffffffffffffffffffffffffffff1673ffffffffffffffffffffffffffffffffffffffff16815260200190815260200160002060008473ffffffffffffffffffffffffffffffffffffffff1673ffffffffffffffffffffffffffffffffffffffff168152602001908152602001600020819055508173ffffffffffffffffffffffffffffffffffffffff168373ffffffffffffffffffffffffffffffffffffffff167f8c5be1e5ebec7d5bd14f71427d1e84f3dd0314c0f7b2291e5b200ac8c7c3b925836040518082815260200191505060405180910390a3505050565b600073ffffffffffffffffffffffffffffffffffffffff168373ffffffffffffffffffffffffffffffffffffffff161415610ecd576040517f08c379a00000000000000000000000000000000000000000000000000000000081526004018080602001828103825260258152602001806119f86025913960400191505060405180910390fd5b600073ffffffffffffffffffffffffffffffffffffffff168273ffffffffffffffffffffffffffffffffffffffff161415610f53576040517f08c379a000000000000000000000000000000000000000000000000000000000815260040180806020018281038252602381526020018061191f6023913960400191505060405180910390fd5b610fa4816000808673ffffffffffffffffffffffffffffffffffffffff1673ffffffffffffffffffffffffffffffffffffffff168152602001908152602001600020546110e390919063ffffffff16565b6000808573ffffffffffffffffffffffffffffffffffffffff1673ffffffffffffffffffffffffffffffffffffffff16815260200190815260200160002081905550611037816000808573ffffffffffffffffffffffffffffffffffffffff1673ffffffffffffffffffffffffffffffffffffffff1681526020019081526020016000205461116c90919063ffffffff16565b6000808473ffffffffffffffffffffffffffffffffffffffff1673ffffffffffffffffffffffffffffffffffffffff168152602001908152602001600020819055508173ffffffffffffffffffffffffffffffffffffffff168373ffffffffffffffffffffffffffffffffffffffff167fddf252ad1be2c89b69c2b068fc378daa952ba7f163c4a11628f55a4df523b3ef836040518082815260200191505060405180910390a3505050565b60008282111561115b576040517f08c379a000000000000000000000000000000000000000000000000000000000815260040180806020018281038252601e8152602001807f536166654d6174683a207375627472616374696f6e206f766572666c6f77000081525060200191505060405180910390fd5b600082840390508091505092915050565b6000808284019050838110156111ea576040517f08c379a000000000000000000000000000000000000000000000000000000000815260040180806020018281038252601b8152602001807f536166654d6174683a206164646974696f6e206f766572666c6f77000000000081525060200191505060405180910390fd5b8091505092915050565b600073ffffffffffffffffffffffffffffffffffffffff168273ffffffffffffffffffffffffffffffffffffffff161415611297576040517f08c379a000000000000000000000000000000000000000000000000000000000815260040180806020018281038252601f8152602001807f45524332303a206d696e7420746f20746865207a65726f20616464726573730081525060200191505060405180910390fd5b6112ac8160025461116c90919063ffffffff16565b600281905550611303816000808573ffffffffffffffffffffffffffffffffffffffff1673ffffffffffffffffffffffffffffffffffffffff1681526020019081526020016000205461116c90919063ffffffff16565b6000808473ffffffffffffffffffffffffffffffffffffffff1673ffffffffffffffffffffffffffffffffffffffff168152602001908152602001600020819055508173ffffffffffffffffffffffffffffffffffffffff16600073ffffffffffffffffffffffffffffffffffffffff167fddf252ad1be2c89b69c2b068fc378daa952ba7f163c4a11628f55a4df523b3ef836040518082815260200191505060405180910390a35050565b600073ffffffffffffffffffffffffffffffffffffffff168273ffffffffffffffffffffffffffffffffffffffff161415611435576040517f08c379a00000000000000000000000000000000000000000000000000000000081526004018080602001828103825260218152602001806119d76021913960400191505060405180910390fd5b61144a816002546110e390919063ffffffff16565b6002819055506114a1816000808573ffffffffffffffffffffffffffffffffffffffff1673ffffffffffffffffffffffffffffffffffffffff168152602001908152602001600020546110e390919063ffffffff16565b6000808473ffffffffffffffffffffffffffffffffffffffff1673ffffffffffffffffffffffffffffffffffffffff16815260200190815260200160002081905550600073ffffffffffffffffffffffffffffffffffffffff168273ffffffffffffffffffffffffffffffffffffffff167fddf252ad1be2c89b69c2b068fc378daa952ba7f163c4a11628f55a4df523b3ef836040518082815260200191505060405180910390a35050565b61155782826113af565b6115f082336115eb84600160008873ffffffffffffffffffffffffffffffffffffffff1673ffffffffffffffffffffffffffffffffffffffff16815260200190815260200160002060003373ffffffffffffffffffffffffffffffffffffffff1673ffffffffffffffffffffffffffffffffffffffff168152602001908152602001600020546110e390919063ffffffff16565b610c50565b5050565b61160881600661178690919063ffffffff16565b8073ffffffffffffffffffffffffffffffffffffffff167f6ae172837ea30b801fbfcdd4108aa1d5bf8ff775444fd70256b44e6bf3dfc3f660405160405180910390a250565b61166281600661186190919063ffffffff16565b8073ffffffffffffffffffffffffffffffffffffffff167fe94479a9f7e1952cc78f2d6baab678adc1b772d936c6583def489e524cb6669260405160405180910390a250565b60008073ffffffffffffffffffffffffffffffffffffffff168273ffffffffffffffffffffffffffffffffffffffff16141561172f576040517f08c379a00000000000000000000000000000000000000000000000000000000081526004018080602001828103825260228152602001806119b56022913960400191505060405180910390fd5b8260000160008373ffffffffffffffffffffffffffffffffffffffff1673ffffffffffffffffffffffffffffffffffffffff16815260200190815260200160002060009054906101000a900460ff16905092915050565b61179082826116a8565b15611803576040517f08c379a000000000000000000000000000000000000000000000000000000000815260040180806020018281038252601f8152602001807f526f6c65733a206163636f756e7420616c72656164792068617320726f6c650081525060200191505060405180910390fd5b60018260000160008373ffffffffffffffffffffffffffffffffffffffff1673ffffffffffffffffffffffffffffffffffffffff16815260200190815260200160002060006101000a81548160ff0219169083151502179055505050565b61186b82826116a8565b6118c0576040517f08c379a00000000000000000000000000000000000000000000000000000000081526004018080602001828103825260218152602001806119946021913960400191505060405180910390fd5b60008260000160008373ffffffffffffffffffffffffffffffffffffffff1673ffffffffffffffffffffffffffffffffffffffff16815260200190815260200160002060006101000a81548160ff021916908315150217905550505056fe45524332303a207472616e7366657220746f20746865207a65726f206164647265737345524332303a20617070726f766520746f20746865207a65726f20616464726573734d696e746572526f6c653a2063616c6c657220646f6573206e6f74206861766520746865204d696e74657220726f6c65526f6c65733a206163636f756e7420646f6573206e6f74206861766520726f6c65526f6c65733a206163636f756e7420697320746865207a65726f206164647265737345524332303a206275726e2066726f6d20746865207a65726f206164647265737345524332303a207472616e736665722066726f6d20746865207a65726f206164647265737345524332303a20617070726f76652066726f6d20746865207a65726f2061646472657373a265627a7a723058201906233d5761406c37839a7ae4c06c776433794992aabbd8ece82e534c7bab5664736f6c634300050a0032526f6c65733a206163636f756e7420697320746865207a65726f20616464726573734578697374696e6720636f6c6c61746572616c2063616e6e6f74206265207a65726fa265627a7a723058200d5e8795e3b952e472780216e5baed17a717a3cda76ebff7380cbc07430d2a8764736f6c634300050a0032",
  "source": "pragma solidity 0.5.10;\n// function to liquidate (optional) this\nimport \"./SimpleToken.sol\";\nimport \"../../contracts/contracts/Delegator.sol\";\n\n\ncontract CDPFactory {\n    mapping (bytes32 => address) public contracts;\n    mapping (bytes32 => CDP) public cdps;\n    uint256 constant COLLATERAL_RATIO = 500;\n    uint256 constant MIN_COLLATERAL_RATIO = 200;\n    uint256 numCDP = 0;\n\n    struct CDP {\n        bytes32 id;\n        bytes32 assetId;\n        address tokenAddress;\n        address owner;\n        uint256 collateral;\n        uint256 debt;\n        uint256 jobId;\n    }\n\n    address public oracleAddress;\n    Delegator delegator;\n    bool initialized = false;\n\n    event DebugUint256(uint256);\n\n    event DebugBytes32(bytes32);\n\n    function init (address _oracleAddress) public {\n        require(!initialized);\n        initialized = true;\n        oracleAddress = _oracleAddress;\n        delegator = Delegator(oracleAddress);\n    }\n\n    function mint(uint256 jobId) public payable\n    {\n        uint256 eth = msg.value;\n        address sender = msg.sender;\n        // (string memory url, string memory selector, string memory name, bool repeat, uint256 result)\n        (string memory url, string memory selector, string memory name , , uint256 result) = delegator.getJob(jobId);\n        bytes32 id = keccak256(abi.encodePacked(url, selector));\n        (, , , , uint256 ethPrice) = delegator.getJob(1);\n\n        // uint256 price = (result)/ethPrice;\n        require(ethPrice != 0,\"Eth Price cannot be zero\");\n        require(result != 0,\"Asset price cannot be zero\");\n        uint256 toMint = (eth*ethPrice*100)/(result*COLLATERAL_RATIO);\n        // uint256 tokenPerEth = (ethPrice)/(result*COLLATERAL_RATIO);\n        if (toMint == 0) revert(\"toMint is 0\");\n        // emit Debug(toMint);\n        if (contracts[id] == 0x0000000000000000000000000000000000000000) {\n            SimpleToken _st = new SimpleToken(string(abi.encodePacked(\"Razor Synthetic \", name)), name, 18);\n            address ad = address(_st);\n            contracts[id] = ad;\n        }\n\n        SimpleToken st = SimpleToken(contracts[id]);\n        bytes32 cdpid = keccak256(abi.encodePacked(msg.sender, id));\n        if (cdps[cdpid].id == 0x0000000000000000000000000000000000000000000000000000000000000000) {\n            cdps[cdpid] = CDP(cdpid, id, address(st), msg.sender, msg.value, toMint, jobId);\n        } else {\n            cdps[cdpid].collateral = cdps[cdpid].collateral + msg.value;\n            cdps[cdpid].debt = cdps[cdpid].debt + toMint;\n        }\n        st.mint(sender, toMint);\n        numCDP = numCDP + 1;\n        emit DebugBytes32(cdpid);\n\n    }\n\n    function draw(uint256 jobId, uint256 amount) public\n    {\n        if (amount == 0) revert(\"amount is 0\");\n        address sender = msg.sender;\n        (string memory url, string memory selector, , , uint256 price) = delegator.getJob(jobId);\n        bytes32 id = keccak256(abi.encodePacked(url, selector));\n        bytes32 cdpid = keccak256(abi.encodePacked(msg.sender, id));\n        CDP storage cdp = cdps[cdpid];\n        if(cdp.collateral == 0) revert('CDP has 0 collateral');\n        (, , , , uint256 ethPrice) = delegator.getJob(1);\n\n        require(ethPrice != 0,\"Eth Price cannot be zero\");\n        require(price != 0,\"Asset price cannot be zero\");\n        //WARNING Overflow protection missing\n        cdp.debt = cdp.debt + amount;\n        // assert(cdp.debt > 0);\n        uint256 collateralRatio  = (cdp.collateral * ethPrice * 100)/(price * cdp.debt);\n        if(collateralRatio < MIN_COLLATERAL_RATIO) revert(\"Collateral ratio below minimum\");\n\n        SimpleToken st = SimpleToken(contracts[id]);\n        st.mint(sender, amount);\n    }\n\n    function increaseCollateral(uint256 jobId) public payable {\n        (string memory url, string memory selector, , , uint256 result) = delegator.getJob(jobId);\n        require(result > 0, \"Result cannot be zero\");\n        bytes32 id = keccak256(abi.encodePacked(url, selector));\n        bytes32 cdpid = keccak256(abi.encodePacked(msg.sender, id));\n        CDP storage cdp = cdps[cdpid];\n        require(cdp.collateral > 0, \"Existing collateral cannot be zero\");\n        cdp.collateral = cdp.collateral + msg.value;\n    }\n\n    function burn(uint256 jobId) public\n    {\n        address sender = msg.sender;\n        (string memory url, string memory selector, , , uint256 result) = delegator.getJob(jobId);\n        bytes32 id = keccak256(abi.encodePacked(url, selector));\n        bytes32 cdpid = keccak256(abi.encodePacked(msg.sender, id));\n        CDP storage cdp = cdps[cdpid];\n\n        SimpleToken st = SimpleToken(contracts[id]);\n        st.burnFrom(sender, cdp.debt);\n        msg.sender.transfer(cdp.collateral);\n        cdp.collateral =  0; //cdp.collateral - toReturn;\n        cdp.debt = 0; //cdp.debt - amount;\n    }\n\n    function liquidate(bytes32 cdpId) public {\n\n        // address sender = msg.sender;\n        CDP storage cdp = cdps[cdpId];\n        emit DebugBytes32(cdp.assetId);\n        uint256 price = delegator.getResult(cdp.jobId);\n        (, , , , uint256 ethPrice) = delegator.getJob(1);\n\n        require(ethPrice != 0,\"Eth Price cannot be zero\");\n        require(price != 0,\"Asset price cannot be zero\");\n\n\n        // priceInEth = price/ethPrice\n        // debt value = debt *price in eth\n        // cr = collateral value / debt value\n        //  = collateral value / (debt *price in eth)\n        //  = (collateral value / priceInEth*debt)\n        //  = (collateral value / (price/ethPrice) *debt)\n        // = (collateral value*ethPrice / price *debt)\n        uint256 collateralRatio  = (cdp.collateral * ethPrice * 100)/(price * cdp.debt);\n\n        if ((collateralRatio) < MIN_COLLATERAL_RATIO) {\n            msg.sender.transfer(cdp.collateral);\n            cdp.collateral = 0;\n            cdp.debt = 0;\n        }\n    }\n}\n",
  "sourcePath": "/Users/hrishi/synthetic-assets/contracts/CDPFactory.sol",
  "compiler": {
    "name": "solc",
    "version": "0.5.10+commit.5a6ea5b1.Emscripten.clang"
  },
  "schemaVersion": "3.0.16",
  "updatedAt": "2019-11-04T15:35:38.840Z",
  "devdoc": {
    "methods": {}
  },
  "userdoc": {
    "methods": {}
  }
}