{
  "contractName": "Constants",
  "abi": [
    {
      "constant": true,
      "inputs": [],
      "name": "commit",
      "outputs": [
        {
          "name": "",
          "type": "uint8"
        }
      ],
      "payable": false,
      "stateMutability": "pure",
      "type": "function"
    },
    {
      "constant": true,
      "inputs": [],
      "name": "reveal",
      "outputs": [
        {
          "name": "",
          "type": "uint8"
        }
      ],
      "payable": false,
      "stateMutability": "pure",
      "type": "function"
    },
    {
      "constant": true,
      "inputs": [],
      "name": "propose",
      "outputs": [
        {
          "name": "",
          "type": "uint8"
        }
      ],
      "payable": false,
      "stateMutability": "pure",
      "type": "function"
    },
    {
      "constant": true,
      "inputs": [],
      "name": "dispute",
      "outputs": [
        {
          "name": "",
          "type": "uint8"
        }
      ],
      "payable": false,
      "stateMutability": "pure",
      "type": "function"
    },
    {
      "constant": true,
      "inputs": [],
      "name": "penaltyNotRevealNum",
      "outputs": [
        {
          "name": "",
          "type": "uint256"
        }
      ],
      "payable": false,
      "stateMutability": "pure",
      "type": "function"
    },
    {
      "constant": true,
      "inputs": [],
      "name": "penaltyNotRevealDenom",
      "outputs": [
        {
          "name": "",
          "type": "uint256"
        }
      ],
      "payable": false,
      "stateMutability": "pure",
      "type": "function"
    },
    {
      "constant": true,
      "inputs": [],
      "name": "minStake",
      "outputs": [
        {
          "name": "",
          "type": "uint256"
        }
      ],
      "payable": false,
      "stateMutability": "pure",
      "type": "function"
    },
    {
      "constant": true,
      "inputs": [],
      "name": "blockReward",
      "outputs": [
        {
          "name": "",
          "type": "uint8"
        }
      ],
      "payable": false,
      "stateMutability": "pure",
      "type": "function"
    },
    {
      "constant": true,
      "inputs": [],
      "name": "unstakeLockPeriod",
      "outputs": [
        {
          "name": "",
          "type": "uint256"
        }
      ],
      "payable": false,
      "stateMutability": "pure",
      "type": "function"
    },
    {
      "constant": true,
      "inputs": [],
      "name": "withdrawLockPeriod",
      "outputs": [
        {
          "name": "",
          "type": "uint256"
        }
      ],
      "payable": false,
      "stateMutability": "pure",
      "type": "function"
    },
    {
      "constant": true,
      "inputs": [],
      "name": "maxAltBlocks",
      "outputs": [
        {
          "name": "",
          "type": "uint256"
        }
      ],
      "payable": false,
      "stateMutability": "pure",
      "type": "function"
    },
    {
      "constant": true,
      "inputs": [],
      "name": "epochLength",
      "outputs": [
        {
          "name": "",
          "type": "uint256"
        }
      ],
      "payable": false,
      "stateMutability": "pure",
      "type": "function"
    },
    {
      "constant": true,
      "inputs": [],
      "name": "numStates",
      "outputs": [
        {
          "name": "",
          "type": "uint256"
        }
      ],
      "payable": false,
      "stateMutability": "pure",
      "type": "function"
    },
    {
      "constant": true,
      "inputs": [],
      "name": "exposureDenominator",
      "outputs": [
        {
          "name": "",
          "type": "uint256"
        }
      ],
      "payable": false,
      "stateMutability": "pure",
      "type": "function"
    }
  ],
  "bytecode": "0x610370610026600b82828239805160001a60731461001957fe5b30600052607381538281f3fe73000000000000000000000000000000000000000030146080604052600436106100f45760003560e01c806357d775f811610096578063b1cc450011610070578063b1cc450014610237578063c198f8ba14610255578063f240f7c314610279578063f4f29c5b1461029d576100f4565b806357d775f8146101d7578063a475b5dd146101f5578063a86f5a3f14610219576100f4565b80633002c9ac116100d25780633002c9ac14610159578063375b3c0a14610177578063379597e0146101955780633c7a3aff146101b3576100f4565b80630ac168a1146100f95780632628490f1461011d57806326bf1c031461013b575b600080fd5b6101016102bb565b604051808260ff1660ff16815260200191505060405180910390f35b6101256102c4565b6040518082815260200191505060405180910390f35b6101436102cd565b6040518082815260200191505060405180910390f35b6101616102d6565b6040518082815260200191505060405180910390f35b61017f6102e0565b6040518082815260200191505060405180910390f35b61019d6102e9565b6040518082815260200191505060405180910390f35b6101bb6102f2565b604051808260ff1660ff16815260200191505060405180910390f35b6101df6102fa565b6040518082815260200191505060405180910390f35b6101fd610303565b604051808260ff1660ff16815260200191505060405180910390f35b61022161030c565b6040518082815260200191505060405180910390f35b61023f610315565b6040518082815260200191505060405180910390f35b61025d610320565b604051808260ff1660ff16815260200191505060405180910390f35b610281610329565b604051808260ff1660ff16815260200191505060405180910390f35b6102a5610332565b6040518082815260200191505060405180910390f35b60006005905090565b60006001905090565b60006001905090565b6000612710905090565b60006064905090565b60006005905090565b600080905090565b60006028905090565b60006001905090565b60006001905090565b6000620186a0905090565b60006002905090565b60006003905090565b6000600490509056fea265627a7a7230582097923b26d72bad64234ef9bc1ea2bbcd47b0c7b374db8ad512b9c1915bb552ce64736f6c634300050a0032",
  "source": "pragma solidity 0.5.10;\n\n\nlibrary Constants {\n    function commit() public pure returns(uint8) { return(0);}\n    function reveal() public pure returns(uint8) { return(1);}\n    function propose() public pure returns(uint8) { return(2);}\n    function dispute() public pure returns(uint8) { return(3);}\n    // penalty not reveal = 0.01% per epch\n    function penaltyNotRevealNum() public pure returns(uint256) { return (1);}\n    function penaltyNotRevealDenom() public pure returns(uint256) { return (100000); }\n    // uint256 constant PENALTY_NOT_IN_ZONE_NUM = 99;\n    // uint256 constant PENALTY_NOT_IN_ZONE_DENOM = 100;\n    function minStake() public pure returns(uint256) { return(100); }\n    function blockReward() public pure returns(uint8) { return(5);}\n    // uint256 constant REVEAL_REWARD = 5;\n    // function safetyMarginLower() public pure returns(uint256) { return(99); }\n    function unstakeLockPeriod() public pure returns(uint256) { return(1); }\n    function withdrawLockPeriod() public pure returns(uint256) { return(1); }\n    function maxAltBlocks() public pure returns(uint256) { return(5); }\n    function epochLength() public pure returns(uint256) { return(40); }\n    function numStates() public pure returns(uint256) { return(4); }\n    function exposureDenominator() public pure returns(uint256) { return(10000); }\n\n // Constants(0, 1, 2, 3, 1, 10000, 99, 100, 1000, 5, 5, 99, 1, 1);\n}\n",
  "sourcePath": "/Users/hrishi/contracts/contracts/lib/Constants.sol",
  "compiler": {
    "name": "solc",
    "version": "0.5.10+commit.5a6ea5b1.Emscripten.clang"
  },
  "schemaVersion": "3.0.16",
  "updatedAt": "2019-10-07T11:20:54.009Z",
  "devdoc": {
    "methods": {}
  },
  "userdoc": {
    "methods": {}
  }
}