{
  "contractName": "Delegator",
  "abi": [
    {
      "constant": true,
      "inputs": [],
      "name": "jobManager",
      "outputs": [
        {
          "name": "",
          "type": "address"
        }
      ],
      "payable": false,
      "stateMutability": "view",
      "type": "function"
    },
    {
      "constant": true,
      "inputs": [],
      "name": "owner",
      "outputs": [
        {
          "name": "",
          "type": "address"
        }
      ],
      "payable": false,
      "stateMutability": "view",
      "type": "function"
    },
    {
      "constant": true,
      "inputs": [],
      "name": "delegate",
      "outputs": [
        {
          "name": "",
          "type": "address"
        }
      ],
      "payable": false,
      "stateMutability": "view",
      "type": "function"
    },
    {
      "constant": false,
      "inputs": [
        {
          "name": "newDelegateAddress",
          "type": "address"
        }
      ],
      "name": "upgradeDelegate",
      "outputs": [],
      "payable": false,
      "stateMutability": "nonpayable",
      "type": "function"
    },
    {
      "constant": true,
      "inputs": [
        {
          "name": "id",
          "type": "uint256"
        }
      ],
      "name": "getResult",
      "outputs": [
        {
          "name": "",
          "type": "uint256"
        }
      ],
      "payable": false,
      "stateMutability": "view",
      "type": "function"
    },
    {
      "constant": true,
      "inputs": [
        {
          "name": "id",
          "type": "uint256"
        }
      ],
      "name": "getJob",
      "outputs": [
        {
          "name": "url",
          "type": "string"
        },
        {
          "name": "selector",
          "type": "string"
        },
        {
          "name": "repeat",
          "type": "bool"
        },
        {
          "name": "result",
          "type": "uint256"
        }
      ],
      "payable": false,
      "stateMutability": "view",
      "type": "function"
    }
  ],
  "bytecode": "0x608060405233600160006101000a81548173ffffffffffffffffffffffffffffffffffffffff021916908373ffffffffffffffffffffffffffffffffffffffff16021790555034801561005157600080fd5b50610884806100616000396000f3fe608060405234801561001057600080fd5b50600436106100625760003560e01c80632da4e75c146100675780633df395a3146100835780638da5cb5b146100a1578063995e4339146100bf578063bf22c457146100ef578063c89e436114610122575b600080fd5b610081600480360361007c91908101906104b0565b610140565b005b61008b61021e565b604051610098919061064e565b60405180910390f35b6100a9610244565b6040516100b69190610633565b60405180910390f35b6100d960048036036100d4919081019061056c565b61026a565b6040516100e691906106bc565b60405180910390f35b6101096004803603610104919081019061056c565b61031e565b6040516101199493929190610669565b60405180910390f35b61012a6103e3565b6040516101379190610633565b60405180910390f35b600160009054906101000a900473ffffffffffffffffffffffffffffffffffffffff1673ffffffffffffffffffffffffffffffffffffffff163373ffffffffffffffffffffffffffffffffffffffff161461019a57600080fd5b806000806101000a81548173ffffffffffffffffffffffffffffffffffffffff021916908373ffffffffffffffffffffffffffffffffffffffff16021790555080600260006101000a81548173ffffffffffffffffffffffffffffffffffffffff021916908373ffffffffffffffffffffffffffffffffffffffff16021790555050565b600260009054906101000a900473ffffffffffffffffffffffffffffffffffffffff1681565b600160009054906101000a900473ffffffffffffffffffffffffffffffffffffffff1681565b6000600260009054906101000a900473ffffffffffffffffffffffffffffffffffffffff1673ffffffffffffffffffffffffffffffffffffffff1663995e4339836040518263ffffffff1660e01b81526004016102c791906106bc565b60206040518083038186803b1580156102df57600080fd5b505afa1580156102f3573d6000803e3d6000fd5b505050506040513d601f19601f820116820180604052506103179190810190610595565b9050919050565b606080600080600260009054906101000a900473ffffffffffffffffffffffffffffffffffffffff1673ffffffffffffffffffffffffffffffffffffffff1663bf22c457866040518263ffffffff1660e01b815260040161037f91906106bc565b60006040518083038186803b15801561039757600080fd5b505afa1580156103ab573d6000803e3d6000fd5b505050506040513d6000823e3d601f19601f820116820180604052506103d491908101906104d9565b93509350935093509193509193565b6000809054906101000a900473ffffffffffffffffffffffffffffffffffffffff1681565b600081359050610417816107fc565b92915050565b60008151905061042c81610813565b92915050565b600082601f83011261044357600080fd5b815161045661045182610704565b6106d7565b9150808252602083016020830185838301111561047257600080fd5b61047d8382846107b8565b50505092915050565b6000813590506104958161082a565b92915050565b6000815190506104aa8161082a565b92915050565b6000602082840312156104c257600080fd5b60006104d084828501610408565b91505092915050565b600080600080608085870312156104ef57600080fd5b600085015167ffffffffffffffff81111561050957600080fd5b61051587828801610432565b945050602085015167ffffffffffffffff81111561053257600080fd5b61053e87828801610432565b935050604061054f8782880161041d565b92505060606105608782880161049b565b91505092959194509250565b60006020828403121561057e57600080fd5b600061058c84828501610486565b91505092915050565b6000602082840312156105a757600080fd5b60006105b58482850161049b565b91505092915050565b6105c78161074c565b82525050565b6105d68161075e565b82525050565b6105e581610794565b82525050565b60006105f682610730565b610600818561073b565b93506106108185602086016107b8565b610619816107eb565b840191505092915050565b61062d8161078a565b82525050565b600060208201905061064860008301846105be565b92915050565b600060208201905061066360008301846105dc565b92915050565b6000608082019050818103600083015261068381876105eb565b9050818103602083015261069781866105eb565b90506106a660408301856105cd565b6106b36060830184610624565b95945050505050565b60006020820190506106d16000830184610624565b92915050565b6000604051905081810181811067ffffffffffffffff821117156106fa57600080fd5b8060405250919050565b600067ffffffffffffffff82111561071b57600080fd5b601f19601f8301169050602081019050919050565b600081519050919050565b600082825260208201905092915050565b60006107578261076a565b9050919050565b60008115159050919050565b600073ffffffffffffffffffffffffffffffffffffffff82169050919050565b6000819050919050565b600061079f826107a6565b9050919050565b60006107b18261076a565b9050919050565b60005b838110156107d65780820151818401526020810190506107bb565b838111156107e5576000848401525b50505050565b6000601f19601f8301169050919050565b6108058161074c565b811461081057600080fd5b50565b61081c8161075e565b811461082757600080fd5b50565b6108338161078a565b811461083e57600080fd5b5056fea365627a7a72305820be458aa3b80ac34d00d384bc9fe49799136d787f705bfe69a2d98641bee739686c6578706572696d656e74616cf564736f6c634300050a0040",
  "source": "pragma solidity 0.5.10;\npragma experimental ABIEncoderV2;\n\nimport \"./Core/IJobManager.sol\";\n\n\ncontract Delegator {\n    address public delegate;\n    address public owner = msg.sender;\n    IJobManager public jobManager;\n\n\n    // function Delegator(IController _controller, bytes32 _controllerLookupName) public {\n    //     controller = _controller;\n    //     controllerLookupName = _controllerLookupName;\n    // }\n\n    function upgradeDelegate(address newDelegateAddress) public {\n            require(msg.sender == owner);\n            delegate = newDelegateAddress;\n            jobManager = IJobManager(newDelegateAddress);\n    }\n\n    function getResult(uint256 id) public view returns(uint256) {\n        return jobManager.getResult(id);\n    }\n\n    function getJob(uint256 id) external view returns(string memory url, string memory selector, bool repeat, uint256 result) {\n            return jobManager.getJob(id);\n    }\n\n\n    //\n    // function() external payable {\n    //     // Do nothing if we haven't properly set up the delegator to delegate calls\n    //     if (delegate == 0x0000000000000000000000000000000000000000) {\n    //         return;\n    //     }\n    //\n    //     // Get the delegation target contract\n    //     address _target = delegate;\n    //\n    //     assembly {\n    //         //0x40 is the address where the next free memory slot is stored in Solidity\n    //         let _calldataMemoryOffset := mload(0x40)\n    //         // new \"memory end\" including padding. The bitwise operations here ensure we get rounded up to the nearest 32 byte boundary\n    //         let _size := and(add(calldatasize, 0x1f), not(0x1f))\n    //         // Update the pointer at 0x40 to point at new free memory location so any theoretical allocation doesn't stomp our memory in this call\n    //         mstore(0x40, add(_calldataMemoryOffset, _size))\n    //         // Copy method signature and parameters of this call into memory\n    //         calldatacopy(_calldataMemoryOffset, 0x0, calldatasize)\n    //         // Call the actual method via delegation\n    //         let _retval := delegatecall(gas, _target, _calldataMemoryOffset, calldatasize, 0, 0)\n    //         switch _retval\n    //         case 0 {\n    //             // 0 == it threw, so we revert\n    //             revert(0,0)\n    //         } default {\n    //             // If the call succeeded return the return data from the delegate call\n    //             let _returndataMemoryOffset := mload(0x40)\n    //             // Update the pointer at 0x40 again to point at new free memory location so any theoretical allocation doesn't stomp our memory in this call\n    //             mstore(0x40, add(_returndataMemoryOffset, returndatasize))\n    //             returndatacopy(_returndataMemoryOffset, 0x0, returndatasize)\n    //             return(_returndataMemoryOffset, returndatasize)\n    //         }\n    //     }\n    // }\n}\n",
  "sourcePath": "/Users/hrishi/contracts/contracts/Delegator.sol",
  "compiler": {
    "name": "solc",
    "version": "0.5.10+commit.5a6ea5b1.Emscripten.clang"
  },
  "schemaVersion": "3.0.16",
  "updatedAt": "2019-10-07T11:20:54.008Z",
  "devdoc": {
    "methods": {}
  },
  "userdoc": {
    "methods": {}
  }
}