{
  "contractName": "Oracle",
  "abi": [
    {
      "anonymous": false,
      "inputs": [
        {
          "indexed": false,
          "name": "id",
          "type": "bytes32"
        },
        {
          "indexed": false,
          "name": "url",
          "type": "string"
        },
        {
          "indexed": false,
          "name": "selector",
          "type": "string"
        }
      ],
      "name": "Requested",
      "type": "event"
    },
    {
      "anonymous": false,
      "inputs": [
        {
          "indexed": false,
          "name": "id",
          "type": "bytes32"
        },
        {
          "indexed": false,
          "name": "value",
          "type": "uint256"
        }
      ],
      "name": "Fulfilled",
      "type": "event"
    },
    {
      "constant": false,
      "inputs": [
        {
          "name": "url",
          "type": "string"
        },
        {
          "name": "selector",
          "type": "string"
        }
      ],
      "name": "request",
      "outputs": [],
      "payable": false,
      "stateMutability": "nonpayable",
      "type": "function"
    },
    {
      "constant": false,
      "inputs": [
        {
          "name": "id",
          "type": "bytes32"
        },
        {
          "name": "value",
          "type": "uint256"
        }
      ],
      "name": "fulfil",
      "outputs": [],
      "payable": false,
      "stateMutability": "nonpayable",
      "type": "function"
    },
    {
      "constant": true,
      "inputs": [
        {
          "name": "id",
          "type": "bytes32"
        }
      ],
      "name": "read",
      "outputs": [
        {
          "name": "",
          "type": "uint256"
        }
      ],
      "payable": false,
      "stateMutability": "view",
      "type": "function"
    },
    {
      "constant": true,
      "inputs": [
        {
          "name": "a",
          "type": "string"
        },
        {
          "name": "b",
          "type": "string"
        }
      ],
      "name": "stringHash",
      "outputs": [
        {
          "name": "",
          "type": "bytes32"
        }
      ],
      "payable": false,
      "stateMutability": "view",
      "type": "function"
    }
  ],
  "bytecode": "0x608060405234801561001057600080fd5b50610618806100206000396000f3fe608060405234801561001057600080fd5b506004361061004c5760003560e01c806301d511f11461005157806361da1439146101a3578063b0333add146101e5578063f62cf72a1461021d575b600080fd5b6101a16004803603604081101561006757600080fd5b810190808035906020019064010000000081111561008457600080fd5b82018360208201111561009657600080fd5b803590602001918460018302840111640100000000831117156100b857600080fd5b91908080601f016020809104026020016040519081016040528093929190818152602001838380828437600081840152601f19601f8201169050808301925050505050505091929192908035906020019064010000000081111561011b57600080fd5b82018360208201111561012d57600080fd5b8035906020019184600183028401116401000000008311171561014f57600080fd5b91908080601f016020809104026020016040519081016040528093929190818152602001838380828437600081840152601f19601f820116905080830192505050505050509192919290505050610383565b005b6101cf600480360360208110156101b957600080fd5b81019080803590602001909291905050506104a7565b6040518082815260200191505060405180910390f35b61021b600480360360408110156101fb57600080fd5b8101908080359060200190929190803590602001909291905050506104c3565b005b61036d6004803603604081101561023357600080fd5b810190808035906020019064010000000081111561025057600080fd5b82018360208201111561026257600080fd5b8035906020019184600183028401116401000000008311171561028457600080fd5b91908080601f016020809104026020016040519081016040528093929190818152602001838380828437600081840152601f19601f820116905080830192505050505050509192919290803590602001906401000000008111156102e757600080fd5b8201836020820111156102f957600080fd5b8035906020019184600183028401116401000000008311171561031b57600080fd5b91908080601f016020809104026020016040519081016040528093929190818152602001838380828437600081840152601f19601f82011690508083019250505050505050919291929050505061051d565b6040518082815260200191505060405180910390f35b600061038f838361051d565b90507fbb4f039653ebb0b5601532bd592770095a314ff0ec5e351b0a99f0f6f5484983818484604051808481526020018060200180602001838103835285818151815260200191508051906020019080838360005b838110156103ff5780820151818401526020810190506103e4565b50505050905090810190601f16801561042c5780820380516001836020036101000a031916815260200191505b50838103825284818151815260200191508051906020019080838360005b8381101561046557808201518184015260208101905061044a565b50505050905090810190601f1680156104925780820380516001836020036101000a031916815260200191505b509550505050505060405180910390a1505050565b6000806000838152602001908152602001600020549050919050565b80600080848152602001908152602001600020819055507f8bae5c6f8257888f96ca3baaa02724516cf1bf86064c1aa8b726d3460035aedc8282604051808381526020018281526020019250505060405180910390a15050565b600082826040516020018083805190602001908083835b602083106105575780518252602082019150602081019050602083039250610534565b6001836020036101000a03801982511681845116808217855250505050505090500182805190602001908083835b602083106105a85780518252602082019150602081019050602083039250610585565b6001836020036101000a038019825116818451168082178552505050505050905001925050506040516020818303038152906040528051906020012090509291505056fea165627a7a7230582095f69230e171e2942b62d1cc3195e70e7fff5fe1bc6a6d37023d172f5be3441b0029",
  "source": "pragma solidity ^0.5.8;\n\ncontract Oracle {\n\tmapping (bytes32 => uint256) values;\n\n\tevent Requested(bytes32 id, string url, string selector);\n\tfunction request (string memory url, string memory selector) public {\n\t\tbytes32 id = stringHash(url,selector);\n\t\temit Requested(id, url, selector);\n\t}\n\n\tevent Fulfilled (bytes32 id, uint256 value);\n\tfunction fulfil (bytes32 id, uint256 value) public {\n\t\tvalues[id] = value;\n\t\temit Fulfilled(id, value);\n\t}\n\n\tfunction read (bytes32 id) public view returns (uint256) {\n\t\treturn values[id];\n\t}\n\n\tfunction stringHash(string memory a, string memory b) public view returns(bytes32) {\n\t\treturn(keccak256(abi.encodePacked(a,b)));\n\n\t}\n}\n",
  "sourcePath": "/Users/hrishi/synthetic-assets/contracts/Oracle.sol",
  "compiler": {
    "name": "solc",
    "version": "0.5.8+commit.23d335f2.Emscripten.clang"
  },
  "schemaVersion": "3.0.11",
  "updatedAt": "2019-08-19T10:53:29.059Z",
  "devdoc": {
    "methods": {}
  },
  "userdoc": {
    "methods": {}
  }
}